:100000000C9434000C945A000C945A000C945A002E
:100010000C945A000C945A000C94C6000C945A008C
:100020000C945A000C945A000C945A000C94F1044D
:100030000C945A000C945A000C943D070C945A00EE
:100040000C945A000C945A000C945A000C945A00C8
:100050000C945A000C945A000C945A000C941305FA
:100060000C945A000C945A0011241FBECFEFD8E014
:10007000DEBFCDBF14BE88E10FB6F8948093600058
:10008000109260000FBE12E0A0E0B1E0EAE4FFE2EF
:1000900002C005900D92A832B107D9F712E0A8E28C
:1000A000B2E001C01D92A039B107E1F70E949800AB
:1000B0000C94A3170C9400008093C6008091C0009C
:1000C00085FFFCCF80E090E00895F894519A8CE091
:1000D00090E09093C5008093C400E0ECF0E0808154
:1000E0008D7F8083E2ECF0E0808186608083E1ECAC
:1000F000F0E080818860808384E091E090938D02BD
:1001000080938C027894089508950E94D60100D0BF
:1001100000D020E031E0EDB7FEB732832183948335
:1001200083830E94BE140F900F900F900F9008953C
:100130000E94B507F894519A8CE090E09093C50026
:100140008093C400E0ECF0E080818D7F8083E2EC5E
:10015000F0E0808186608083E1ECF0E0808188605F
:10016000808384E091E090938D0280938C02789458
:1001700084E890E065E870E00E945B0A80E090E02F
:100180000895089580E090E0089508951F920F92D9
:100190000FB60F9211248F9388E10FB6F8948093D5
:1001A0006000109260000FBE8F910F900FBE0F90F5
:1001B0001F901895009739F020ED37E0F90131973D
:1001C000F1F70197D9F708958093B3006093B400D5
:1001D00008958FEF8093B3008093B40080ED97E093
:1001E000FC013197F1F7FC013197F1F7FC013197F0
:1001F000F1F7FC013197F1F7FC013197F1F7FC01C0
:100200003197F1F7FC013197F1F7FC013197F1F7E4
:10021000FC013197F1F7FC013197F1F7FC013197BF
:10022000F1F7FC013197F1F7FC013197F1F7FC018F
:100230003197F1F70197F1F70895809153028823E0
:10024000F9F4F89487E080937C0083E880937A0047
:1002500080917A00806480937A0080917A0086FD94
:10026000FCCF209178003091790010927C0083EAD5
:1002700080937A0081E080937B007894C90108958F
:100280002FEF3FEFC9010895809153028823F9F4BD
:10029000F89488EC80937C0087E880937A008091C2
:1002A0007A00806480937A0080917A0086FDFCCF8A
:1002B000209178003091790010927C0083EA80933D
:1002C0007A0081E080937B007894C90108952FEF34
:1002D0003FEFC9010895CF93DF93B0E060E070E095
:1002E000F3EAA1E056E0E3E8C1E0D0E020E030E04E
:1002F000F89450937C00E0937A0080917A008064B7
:1003000080937A0080917A0086FDFCCF80917800FE
:1003100090917900482F417080917A008064809399
:100320007A0080917A0086FDFCCF809178009091D0
:10033000790010927C00F0937A00A0937B0078946F
:100340008170481729F42F5F3F4F2038310581F61F
:10035000442341F0CE01062E02C0880F991F0A9453
:10036000E2F7B82B6F5F7F4F6830710509F0BECFA1
:100370008B2FDF91CF91089580911A01982F990FBB
:10038000990F990F982720912A02822F869586959A
:100390008927929596959770892780931A012F5FE8
:1003A00020932A02089580931A01089580915302A0
:1003B0008823B9F4F89486E080937C0083E88093E6
:1003C0007A0080917A00806480937A0080917A002C
:1003D00086FDFCCF20917800309179007894C90196
:1003E00008952FEF3FEFC90108952F923F924F924A
:1003F0005F926F927F928F929F92AF92BF92CF92B5
:10040000DF92EF92FF920F931F93DF93CF9300D071
:1004100000D00F92CDB7DEB71C01DC0112964D90D3
:100420005C901397B4E84B16B3E05B060CF49DC0E8
:10043000EFEFED83BDEB4B16B2E05B06D4F48D819C
:100440008F5D0F900F900F900F900F90CF91DF91D5
:100450001F910F91FF90EF90DF90CF90BF90AF90E2
:100460009F908F907F906F905F904F903F902F90D4
:100470000895F101008111818091540290915502FB
:100480008017910708F443C1E0905602F09057029C
:10049000E016F10608F415C2E0905802F0905902F7
:1004A000E016F10608F416C2E0905A02F0905B02E2
:1004B000E016F10608F417C2E0905C02F0905D02CD
:1004C000E016F10608F418C2E0905E02F0905F02B8
:1004D000E016F10608F46EC1E0906002F09061024F
:1004E000E016F10608F411C2E0906202F090630297
:1004F000E016F10608F412C2E0906402F090650282
:10050000E016F10608F413C2E0906602F09067026C
:10051000E016F10608F414C2E0906802F090690257
:10052000E016F10608F415C2E0906A02F0906B0242
:10053000E016F10608F41AC2E0906C02F0906D0229
:10054000E016F10608F41BC2E0906E02F0906F0214
:10055000E016F10608F41CC28AE5382E2D812F3FE3
:1005600009F0DAC0832D8F5D6CCF80912D029091C0
:100570002E028415950508F4C8C0E0902F02F09073
:100580003002E414F50408F4A1C1E0903102F090C7
:100590003202E414F50408F4A2C1E0903302F090B2
:1005A0003402E414F50408F4A3C1E0903502F0909D
:1005B0003602E414F50408F4A4C1E0903702F09088
:1005C0003802E414F50408F460C1E0903902F090B8
:1005D0003A02E414F50408F49DC1E0903B02F09067
:1005E0003C02E414F50408F49EC1E0903D02F09052
:1005F0003E02E414F50408F49FC1E0903F02F0903D
:100600004002E414F50408F4A0C1E0904102F09027
:100610004202E414F50408F4A1C1E0904302F09012
:100620004402E414F50408F49DC1E0904502F09002
:100630004602E414F50408F49EC1E0904702F090ED
:100640004802E414F50408F49FC10CE010E080E0D7
:1006500090E0A0EDB0E489839A83AB83BC83000F64
:10066000111F035D1D4FD8018D919C91B701681B2F
:10067000790B80E090E00E9472119B01AC010E9416
:10068000BD0E3B014C01B201882777FD8095982F64
:100690000E94C0105B016C01B70180E090E00E94F5
:1006A00072117B018C01C401B30129813A814B8114
:1006B0005C810E94EA0E9B01AC01C801B7010E9457
:1006C0008C0E9B01AC01C601B5010E948C0E20E08E
:1006D00030E040E251E40E94EA0E0E941E117B01CC
:1006E0008C01C401B3010E941E119B01AC01C70122
:1006F000B9010E94FF13882777FD8095982F0E94EB
:10070000C0100E94140D6D8395CE1D8293CE3324AC
:100710002D812F3F09F426CFB201882777FD8095E0
:10072000982F0E94C0105B016C01AD816A2F70E0B0
:1007300080E090E00E9472117B018C0160E070E02B
:1007400081E694E4A60195010E948C0E9B01AC0108
:10075000C801B7010E94EA0E3B014C01632D70E015
:1007600080E090E00E9472117B018C01C601B5010E
:1007700020E030E04FE254E40E948C0E9B01AC017B
:10078000C801B7010E94EA0E9B01AC01C401B3018C
:100790000E94BD0E20E030E048E453E40E94E40FE4
:1007A00020E030E044E052E40E94BD0E0E94140DAF
:1007B000862F47CEA5E03A2EE5E0F0E0EE0FFF1FD2
:1007C000EE5AFD4F80819181B701681B790B80E063
:1007D00090E00E9472119B01AC010E94BD0E3B0192
:1007E0004C01B801882777FD8095982F0E94C01092
:1007F0005B016C01B70180E090E00E9472117B0107
:100800008C01632D70E080E090E00E94721120E086
:1008100030E040E05FE30E94EA0E20E030E040E09C
:1008200050E00E94BD0EA40193010E94EA0E9B01BC
:10083000AC01C801B7010E948C0E9B01AC01C6013E
:10084000B5010E948C0E20E030E040E251E40E94AD
:10085000EA0E0E941E117B018C01C401B3010E94AB
:100860001E119B01AC01C701B9010E94FF1388272B
:1008700077FD8095982F0E94C0100E94140D362E8F
:10088000FFEF6F1709F044CFDACD85E090E065E027
:100890008C010150104070E080E090E00E947211E5
:1008A00020E030E040E05FE30E94EA0E20E030E02C
:1008B00040E050E00E94BD0E69837A838B839C8365
:1008C000CECE33243394E1E0F0E078CF81E090E0C5
:1008D00061E0DECF92E0392EE2E0F0E06FCF82E01F
:1008E00090E062E0D5CF83E0382EE3E0F0E066CF21
:1008F00083E090E063E0CCCFB4E03B2EE4E0F0E0B6
:100900005DCF84E090E064E0C3CFF6E03F2EE6E008
:10091000F0E054CF86E090E066E0BACFE7E03E2E0C
:10092000E7E0F0E04BCF87E090E067E0B1CF78E020
:10093000372EE8E0F0E042CF88E090E068E0A8CF12
:1009400069E0362EE9E0F0E039CF89E090E069E037
:100950009FCF5AE0352EEAE0F0E030CF8AE090E019
:100960006AE096CF8BE090E06BE092CF4BE0342EC4
:10097000EBE0F0E023CF8CE090E06CE089CF3CE04E
:10098000332EECE0F0E01ACF8DE090E06DE080CF08
:100990002DE0322EEDE0F0E011CF80FF11C0559A2E
:1009A00081FF11C0549A82FF11C03B9A83FF11C08E
:1009B0003A9A84FF11C03D9A85FD11C03C98089574
:1009C000559881FDEFCF549882FDEFCF3B9883FD82
:1009D000EFCF3A9884FDEFCF3D9885FFEFCF3C9A5B
:1009E00008951F920F920FB60F9211248F939F9329
:1009F00010928100109285001092840091E09093F3
:100A00002C02909370021092530210927C0083EAA1
:100A100080937A0090937B009F918F910F900FBEEF
:100A20000F901F9018951F920F920FB60F921124DE
:100A30000F931F932F933F934F935F936F937F93E6
:100A40008F939F93AF93BF93EF93FF936091840035
:100A50007091850001E00093530280912C0288235D
:100A6000A9F11092850010928400009381001092E9
:100A7000840210922C02809170028823A1F0809150
:100A80007A0086FDFCCF8091780090917900909358
:100A90004E0280934D0291E090937C0083EA809314
:100AA0007A0090937B00FF91EF91BF91AF919F915E
:100AB0008F917F916F915F914F913F912F911F91F6
:100AC0000F910F900FBE0F901F901895CB01875874
:100AD00090408457994008F066C06658704080E0A6
:100AE00090E024EF30E040E050E00E94E013BC01D1
:100AF00088279927683008F48DC000932C028091D4
:100B00007002882309F063C080914A02E0911801C5
:100B1000F0911901E80FF11D80918402808380918A
:100B20004A028F5F80934A028C3009F0BCCF10924A
:100B30008100109285001092840000937002109240
:100B40005302009180021091810286E792E00E9498
:100B5000D80B0817190709F0A6CF90917F0297FFCD
:100B60006BC0892F8858833030F0539823981092A7
:100B7000B4001092B300963809F4D2C0973808F048
:100B800065C0933809F4D0C0943808F068C0903834
:100B900009F089CF80916E008D7F80936E0016BC26
:100BA000E0E0F0E709951092810010928500109224
:100BB000840000932C020093700210925302109252
:100BC0007C0083EA80937A0000937B006CCF809155
:100BD0007A0086FDFCCF8091780090917900909307
:100BE0004C0280934B0210927C0083EA80937A003F
:100BF00091E090937B00809184028823C1F0109251
:100C000081001092850010928400909370021092DF
:100C1000530249CF81E090E002C0880F991F6A9586
:100C2000E2F720918402282B209384023CCF10927B
:100C3000700210924A0237CFE0911201F091130135
:100C400086E792E06BE472E009952DCF983809F4BD
:100C50006EC0983870F482E080932B0224CF9438D1
:100C600009F479C0953809F01ECF81E080932B02FA
:100C70001ACF993809F498C09A3809F014CF8091A6
:100C80007602823009F4BEC0833008F074C0882335
:100C900009F064C080912B02863009F004CF80EB0C
:100CA00090E0609185020E94B8166091860281EB07
:100CB00090E00E94B81685E090E0609189020E9461
:100CC000B81689E090E0609175020E94B8168CE039
:100CD00090E0609187020E94B81684E190E06091F4
:100CE00088020E94B816539823981092B40010926C
:100CF000B30081E080932B0280917602882309F46F
:100D0000D2CE80912B02863009F4CDCE539A239A0D
:100D10001092B4001092B30086E080932B02C3CEF1
:100D200085E080932B02BFCEE0E0F0E00995809152
:100D30002B02833009F4B7CE80912B02843009F462
:100D4000B2CE539A239A1092B4001092B30083E06B
:100D500080932B02A8CE10922B02A5CE813071F683
:100D60008091770290917802909386028093850219
:100D700010922802C6CF833009F45BC0843009F09A
:100D8000BDCF80912802833009F44AC020917C02B3
:100D900090917B021092290283E080932802909325
:100DA000870220938802ADCF80912B02863091F08C
:100DB000539A239A1092B4001092B30080E00E94DC
:100DC000CD0410922802809128028093290286E0A7
:100DD00080932B0281E090E00090760202C0880FA1
:100DE000991F0A94E2F720918502309186028223AE
:100DF0009323892B19F41092280255CE81E0809319
:100E0000280251CE80912802813009F19091790217
:100E10001092290281E0809328029093890271CF79
:100E200020917C02809188022817C1F090917B026A
:100E3000B1CF809128028230C9F090917A0210924D
:100E4000290282E080932802909375025ACF9091F4
:100E50007902809189029817D9F653CF90917B023D
:100E600080918702981709F095CF4BCF90917A0225
:100E700080917502981719F744CF1F920F920FB601
:100E80000F9211242F933F934F935F936F937F9310
:100E90008F939F93AF93BF93EF93FF932091710232
:100EA000309172028091730290917402280F391F61
:100EB00030937402209373028FEF90E0909372024C
:100EC000809371028FEF87BD80914F029091500205
:100ED000A0915102B09152020196A11DB11D8093C3
:100EE0004F0290935002A0935102B093520280910E
:100EF0005302882359F480918202909183028217D1
:100F0000930720F480912B02843089F0FF91EF91B8
:100F1000BF91AF919F918F917F916F915F914F9111
:100F20003F912F910F900FBE0F901F901895E09159
:100F30001401F09115010995009741F30E94910C5D
:100F4000882349F40E94AE1490E09093720280933B
:100F5000710287BDDBCFE0911601F0911701099571
:100F60001092740210927302D1CF0F931F93F894D2
:100F700014B817B81AB815B818B81BB8529A5A9AB4
:100F800014BC85E085BD8FEF87BD22E020936E0005
:100F900010928000109281008FE89BE0909389006E
:100FA0008093880020936F005398239881EA809360
:100FB000B0002093B1001092B4001092B3008BE007
:100FC00080BF83E080937F0086E080937C0083E88D
:100FD00080937A0080917A00806480937A00809177
:100FE0007A0086FDFCCF10927C0083EA80937A0021
:100FF00081E080937B0081E090E00E94B0168F3FFB
:1010000011F0809366001092530211E010932C02AD
:101010001093700210924A021092840280E990E0CC
:101020000E94B0168093490280914902887311F0A2
:101030001093490210927402109273028FEF90E0A5
:10104000909372028093710210924F02109250029C
:10105000109251021092520281E080932B0282E49E
:101060009FE0909383028093820280EB90E00E9445
:10107000B016082F81EB90E00E94B016382F20E0C8
:1010800010E0202B312B309386022093850285E0DF
:1010900090E00E94B0168093890289E090E00E945F
:1010A000B016809375028CE090E00E94B016809399
:1010B000870284E190E00E94B0168093880280E26B
:1010C00090E00E94B016182F81E290E00E94B016C6
:1010D000312F20E090E0282B392B309355022093BC
:1010E000540280E590E00E94B016182F81E590E050
:1010F0000E94B016312F20E090E0282B392B30933E
:101100002E0220932D0282E290E00E94B016182F4A
:1011100083E290E00E94B016312F20E090E0282B6F
:10112000392B309357022093560282E590E00E94BB
:10113000B016182F83E590E00E94B016312F20E002
:1011400090E0282B392B3093300220932F0284E239
:1011500090E00E94B016182F85E290E00E94B01631
:10116000312F20E090E0282B392B30935902209327
:10117000580284E590E00E94B016182F85E590E0B3
:101180000E94B016312F20E090E0282B392B3093AD
:1011900032022093310286E290E00E94B016182FAE
:1011A00087E290E00E94B016312F20E090E0282BDB
:1011B000392B30935B0220935A0286E590E00E941F
:1011C000B016182F87E590E00E94B016312F20E06E
:1011D00090E0282B392B309334022093330288E29D
:1011E00090E00E94B016182F89E290E00E94B0169D
:1011F000312F20E090E0282B392B30935D02209393
:101200005C0288E590E00E94B016182F89E590E016
:101210000E94B016312F20E090E0282B392B30931C
:101220003602209335028AE290E00E94B016182F11
:101230008BE290E00E94B016312F20E090E0282B46
:10124000392B30935F0220935E028AE590E00E9482
:10125000B016182F8BE590E00E94B016312F20E0D9
:1012600090E0282B392B30933802209337028CE200
:1012700090E00E94B016182F8DE290E00E94B01608
:10128000312F20E090E0282B392B309361022093FE
:1012900060028CE590E00E94B016182F8DE590E07A
:1012A0000E94B016312F20E090E0282B392B30938C
:1012B0003A02209339028EE290E00E94B016182F75
:1012C0008FE290E00E94B016312F20E090E0282BB2
:1012D000392B30936302209362028EE590E00E94E6
:1012E000B016182F8FE590E00E94B016312F20E045
:1012F00090E0282B392B30933C0220933B0280E373
:1013000090E00E94B016182F81E390E00E94B01682
:10131000312F20E090E0282B392B30936502209369
:10132000640280E690E00E94B016182F81E690E0FB
:101330000E94B016312F20E090E0282B392B3093FB
:101340003E0220933D0282E390E00E94B016182FE7
:1013500083E390E00E94B016312F20E090E0282B2C
:10136000392B309367022093660282E690E00E9458
:10137000B016182F83E690E00E94B016312F20E0BF
:1013800090E0282B392B3093400220933F0284E3D6
:1013900090E00E94B016182F85E390E00E94B016EE
:1013A000312F20E090E0282B392B309369022093D5
:1013B000680284E690E00E94B016182F85E690E05F
:1013C0000E94B016312F20E090E0282B392B30936B
:1013D00042022093410286E390E00E94B016182F4B
:1013E00087E390E00E94B016312F20E090E0282B98
:1013F000392B30936B0220936A0286E690E00E94BC
:10140000B016182F87E690E00E94B016312F20E02A
:1014100090E0282B392B309344022093430288E339
:1014200090E00E94B016182F89E390E00E94B01659
:10143000312F20E090E0282B392B30936D02209340
:101440006C0288E690E00E94B016182F89E690E0C2
:101450000E94B016312F20E090E0282B392B3093DA
:101460004602209345028AE390E00E94B016182FAE
:101470008BE390E00E94B016312F20E090E0282B03
:10148000392B30936F0220936E028AE690E00E941F
:10149000B016182F8BE690E00E94B016312F20E096
:1014A00090E0282B392B3093480220934702789400
:1014B0001F910F9108952F923F924F925F926F92DA
:1014C0007F928F929F92AF92BF92CF92DF92EF92D4
:1014D000FF920F931F93CF93DF936C018B01FF2437
:1014E000A0EDAA2EA7E0BA2EC8ECD0E0EE24EA9434
:1014F000F0E38F2EF5E79F2EE6E07E2E73E8672E51
:1015000068E1462E512C59E2352E44E0242E80917C
:101510002B02833079F18430B8F5813009F4CBC0E7
:10152000823008F461C080915302882309F008C119
:10153000F89470927C0060927A0080917A008064C6
:1015400080937A0080917A0086FDFCCF209178000C
:1015500030917900789442E02B3A34070CF4F7C0CC
:10156000559854983B9A3A9A3D983C9880912B0212
:10157000833089F6FF2009F4E0C020922B02FF247B
:10158000F394F8010995C3CF853089F08530C8F30D
:10159000863009F0BCCF80912802882309F0A6C0CC
:1015A0001092B3001092B40010922902B0CF489963
:1015B00063C0559A54983B983A983D983C98C50119
:1015C0000197F1F7559854983B983A983D983C9874
:1015D00020E030E0CE010197F1F72F5F3F4F87E029
:1015E000203D3807B9F793CFF89480B7877F80BF45
:1015F00080917A008F7780937A0014B817B81AB860
:1016000015B818B81BB80FB6F894A89540926000AA
:101610000FBE309260008091600080648093600013
:1016200083B7817F846083BFF89483B7816083BF71
:101630007894889583B78E7F83BF789410925302F5
:10164000529A5A9A80917A00806880937A0088E54D
:1016500092E00197F1F780B7886180BF559A549A5C
:101660003B9A3A9A3D9A3C9A80E29EE40197F1F7C0
:1016700080915302882339F4559854983B983A98AE
:101680003D983C9844CF559A549A3B983A983D9847
:101690003C9820E030E0CE010197F1F72F5F3F4FFB
:1016A00043E0283E3407B9F7559854983B983A9848
:1016B0003D983C982CCF559854983B9A3A9A3D982F
:1016C0003C98C5010197F1F7559854983B983A9882
:1016D0003D983C9820E030E0CE010197F1F72F5F74
:1016E0003F4F87E0203D3807B9F711CF909128028E
:1016F00080912902981709F40ACF809128028093DB
:10170000290280912802813069F18091280282307B
:10171000B9F11092B300E092B400E092B300E0920D
:10172000B400C4010197F1F780918702909188027B
:101730008093B3009093B400EACEF60109951DCFD3
:10174000559A549A3B983A983D983C98E0CE82E05E
:10175000293838071CF1559854983B983A983D9A87
:101760003C9AD5CEE092B3001092B400C401019728
:10177000F1F7809189028093B3001092B400C7CE34
:101780001092B300E092B400C4010197F1F7809188
:1017900075021092B3008093B400B9CE2756324040
:1017A0007CF2559A549A3B9A3A9A3D983C98AFCE1F
:1017B000FC0180812FEF3FEF2827022E2295207F0A
:1017C0002025032E322F22952F70022626953227B0
:1017D0002327220F220F220F202581812827022E66
:1017E0002295207F2025032E322F22952F7002264E
:1017F000269532272327220F220F220F20258281B0
:101800002827022E2295207F2025032E322F229575
:101810002F700226269532272327220F220F220F10
:10182000202583812827022E2295207F2025032E24
:10183000322F22952F700226269532272327220F3A
:10184000220F220F202584812827022E2295207F17
:101850002025032E322F22952F700226269532271F
:101860002327220F220F220F202585812827022ED1
:101870002295207F2025032E322F22952F700226BD
:10188000269532272327220F220F220F202586811B
:101890002827022E2295207F2025032E322F2295E5
:1018A0002F700226269532272327220F220F220F80
:1018B000202587812827022E2295207F2025032E90
:1018C000322F22952F700226269532272327220FAA
:1018D000220F220F202580852827022E2295207F87
:1018E0002025032E322F22952F700226269532278F
:1018F0002327220F220F220F202581852827022E41
:101900002295207F2025032E322F22952F7002262C
:10191000269532272327220F220F220F2025C901C7
:1019200008950FB6F894A4B1209149022A2B24B946
:1019300021E030914902203029F0000025B1232B0D
:1019400025B904C000000000000000C00000000035
:101950000000309525B1232325B92EEA2A95F1F709
:101960002BEE30B735FF0AC0A4B93091490230954B
:1019700025B1232325B90FBE80E0089500002A95E4
:1019800081F721E030914902203029F0000025B193
:10199000232B25B904C000000000000000C0000097
:1019A00000000000309525B1232325B9000024E56F
:1019B0002A95F1F7FC018CE0619170E0660F771FCA
:1019C000616072609AE041E050E09A01262337237B
:1019D000232B30914902203029F0000025B1232B20
:1019E00025B904C000000000000000C00000000095
:1019F0000000309525B1232325B9000021E52A9563
:101A0000F1F7440F551F9A9501F78A95A9F620B76B
:101A1000206120BFA4B930914902309525B123231C
:101A200025B90FBE81E00895EF92FF920F931F93A7
:101A30007B018C0120E030E040E05FE40E949010E8
:101A400088238CF0C801B70120E030E040E05FE47B
:101A50000E948C0E0E941E119B01AC012050304050
:101A60004040504806C0C801B7010E941E119B01AA
:101A7000AC01B901CA011F910F91FF90EF90089539
:101A8000A0E0B0E0E6E4FDE00C942614DC012B01BC
:101A9000FA019C91923008F439C1EB0188818230BF
:101AA00008F433C1943069F4843009F02FC11196E1
:101AB0009C9111978981981709F428C1ABE1B1E095
:101AC00025C1843009F421C18230A9F4923009F093
:101AD0001DC19A01AD0188E0EA010990AE01E9015A
:101AE00009929E018150C1F7E201898111969C9172
:101AF0008923818308C1923009F407C112962D9081
:101B00003C901397EB018A819B811496AD90BD9018
:101B1000CD90DC901797EC80FD800E811F819101A4
:101B2000281B390BB90137FF04C066277727621BD2
:101B3000730B603271050CF061C0121613066CF560
:101B400037014801062E04C09694879477946794D1
:101B50000A94D2F721E030E040E050E004C0220FC8
:101B6000331F441F551F6A95D2F721503040404023
:101B700050402E213F21402351232115310541059D
:101B8000510521F021E030E040E050E079018A0188
:101B9000E628F728082919293CC0232BD1F1260E65
:101BA000371E35014601062E04C09694879477941B
:101BB00067940A94D2F721E030E040E050E004C09E
:101BC000220F331F441F551F6A95D2F72150304012
:101BD000404050402A213B214C215D2121153105F7
:101BE0004105510521F021E030E040E050E059018D
:101BF0006A01A628B728C828D9280BC082159305E2
:101C00002CF01C01AA24BB24650103C0EE24FF2490
:101C1000870111969C91D20111968C91981709F425
:101C200045C0992339F0A80197012A193B094C09AD
:101C30005D0906C0A60195012E193F09400B510B05
:101C400057FD08C011823382228224833583468364
:101C500057831DC081E081833382228288279927A0
:101C6000DC01821B930BA40BB50B84839583A683A5
:101C7000B7830DC0220F331F441F551F24833583A4
:101C80004683578382819381019793838283248142
:101C9000358146815781DA01C9010197A109B1094E
:101CA0008F5F9F4FAF4FBF4328F30BC091833382A9
:101CB0002282EA0CFB1C0C1D1D1DE482F5820683AA
:101CC000178383E08083248135814681578157FFC4
:101CD0001AC0C901AA2797FDA095BA2F81709070EC
:101CE000A070B0705695479537952795822B932B0A
:101CF000A42BB52B84839583A683B783828193819C
:101D0000019693838283DF0101C0D201CD01CDB75B
:101D1000DEB7E2E10C944214A0E2B0E0E2E9FEE0BA
:101D20000C94321469837A838B839C832D833E8346
:101D30004F835887E9E0EE2EF12CEC0EFD1ECE010C
:101D40000196B7010E940F138E010F5E1F4FCE0147
:101D50000596B8010E940F138A8991E089278A8B22
:101D6000C701B801AE01475E5F4F0E94400D0E945F
:101D70003A12A096E6E00C944E14A0E2B0E0E3EC38
:101D8000FEE00C94321469837A838B839C832D83C9
:101D90003E834F835887F9E0EF2EF12CEC0EFD1EA9
:101DA000CE010196B7010E940F138E010F5E1F4FE7
:101DB000CE010596B8010E940F13C701B801AE010C
:101DC000475E5F4F0E94400D0E943A12A096E6E0E7
:101DD0000C944E14A0E2B0E0E0EFFEE00C94261468
:101DE00069837A838B839C832D833E834F835887BB
:101DF000CE010196BE01675F7F4F0E940F13CE0197
:101E00000596BE016F5E7F4F0E940F139985923039
:101E100088F089898230C8F0943019F4823051F406
:101E200004C0843029F4923081F48BE191E0C6C083
:101E3000923049F420E09A858A89981321E02A8714
:101E4000CE010996BBC0823049F420E09A858A8988
:101E5000981321E02A8BCE014196B0C02D843E8498
:101E60004F8458886D887E888F88988CEE24FF2454
:101E70008701AA24BB24650140E050E060E070E0E7
:101E8000E0E0F0E0C10181709070892BE9F0E60C90
:101E9000F71C081D191D9A01AB012A0D3B1D4C1D95
:101EA0005D1D80E090E0A0E0B0E0E614F7040805D6
:101EB000190520F481E090E0A0E0B0E0BA01A901AA
:101EC000480F591F6A1F7B1FAA0CBB1CCC1CDD1CB2
:101ED00097FE08C081E090E0A0E0B0E0A82AB92A0F
:101EE000CA2ADB2A3196E032F10549F0660C771CEC
:101EF000881C991C5694479437942794C3CFFA852D
:101F0000EA892B893C898B859C85280F391F2E5F98
:101F10003F4F17C0CA0181709070892B61F01695F0
:101F20000795F794E79480E090E0A0E0B0E8E82A15
:101F3000F92A0A2B1B2B76956795579547952F5FA6
:101F40003F4F77FDE7CF0CC0440F551F661F771F2B
:101F500017FD4160EE0CFF1C001F111F2150304087
:101F6000403090E0590790E0690790E4790760F30A
:101F70002B8F3C8FDB01CA018F779070A070B070FF
:101F800080349105A105B10561F447FD0AC0E11453
:101F9000F1040105110529F0405C5F4F6F4F7F4F41
:101FA00040781A8EFE1711F081E08A8F4D8F5E8F78
:101FB0006F8F78A383E0898FCE0149960E943A12F1
:101FC000A096E2E10C944214A8E1B0E0EAEEFFE052
:101FD0000C942E1469837A838B839C832D833E8398
:101FE0004F835887B9E0EB2EF12CEC0EFD1ECE018D
:101FF0000196B7010E940F138E010F5E1F4FCE0195
:102000000596B8010E940F132985223008F47EC07E
:102010003989323010F4B8017CC08A859A898927C1
:102020008A87243011F0223031F4231709F06EC072
:102030006BE171E06EC0343039F41D861E861F8658
:10204000188A1C861B8604C0323021F484E08987FC
:10205000B7015FC02B853C858B899C89281B390B78
:102060003C872B87ED84FE840F851889AD88BE8858
:10207000CF88D88CEA14FB040C051D0540F4EE0C47
:10208000FF1C001F111F215030403C872B8720E090
:1020900030E040E050E080E090E0A0E0B0E460E0BC
:1020A00070E0EA14FB040C051D0540F0282B392BC9
:1020B0004A2B5B2BEA18FB080C091D09B695A7955E
:1020C00097958795EE0CFF1C001F111F6F5F7F4FC8
:1020D0006F31710531F7DA01C9018F779070A07007
:1020E000B07080349105A105B10561F427FD0AC0E7
:1020F000E114F1040105110529F0205C3F4F4F4F19
:102100005F4F20782D873E874F87588BBE01675FD2
:102110007F4FCB010E943A126896EAE00C944A1471
:10212000A8E1B0E0E6E9F0E10C94321469837A8327
:102130008B839C832D833E834F83588789E0E82ED1
:10214000F12CEC0EFD1ECE010196B7010E940F137B
:102150008E010F5E1F4FCE010596B8010E940F132E
:102160008985823040F08989823028F0C701B80122
:102170000E94871301C08FEF6896E6E00C944E141E
:10218000A8E0B0E0E6ECF0E10C942F149B01AC0168
:1021900083E08983DA01C9018827B7FD83959927F0
:1021A000AA27BB27B82E211531054105510519F481
:1021B00082E089833AC08823A9F0203080E0380784
:1021C00080E0480780E8580729F460E070E080E08C
:1021D0009FEC30C0EE24FF248701E21AF30A040BBF
:1021E000150B02C079018A018EE1C82ED12CDC8248
:1021F000CB82ED82FE820F831887C801B7010E944F
:10220000EB1101971816190684F4082E04C0EE0C81
:10221000FF1C001F111F0A94D2F7ED82FE820F836C
:102220001887C81AD90ADC82CB82BA82CE010196FD
:102230000E943A122896E9E00C944B14ACE0B0E00E
:10224000E4E2F1E10C94361469837A838B839C83F6
:10225000CE010196BE016B5F7F4F0E940F138D81EF
:10226000823061F1823050F1843021F48E818823F4
:1022700051F12EC02F81388537FD20C06E812F315E
:1022800031051CF06623F9F023C08EE190E0821B3B
:10229000930B29853A854B855C8504C056954795F7
:1022A000379527958A95D2F76623B1F050954095DA
:1022B000309521953F4F4F4F5F4F0EC020E030E0EB
:1022C00040E050E009C02FEF3FEF4FEF5FE704C061
:1022D00020E030E040E050E8B901CA012C96E2E08D
:1022E0000C945214A8E0B0E0E8E7F1E10C942E144D
:1022F0007B018C01611571058105910519F482E05E
:10230000898360C083E089838EE1C82ED12CDC8272
:10231000CB82ED82FE820F831887C801B7010E942D
:10232000EB11FC013197F7FF3BC0222733272E1B0F
:102330003F0B57016801022E04C0D694C794B7948E
:10234000A7940A94D2F740E050E060E070E081E0AA
:1023500090E0A0E0B0E004C0880F991FAA1FBB1F47
:102360002A95D2F70197A109B1098E219F21A023B7
:10237000B1230097A105B10521F041E050E060E0F4
:1023800070E04A295B296C297D294D835E836F8328
:1023900078878EE190E08E1B9F0B9C838B8312C00D
:1023A000309781F00E2E04C0EE0CFF1C001F111F91
:1023B0000A94D2F7ED82FE820F831887CE1ADF0AC5
:1023C000DC82CB821A82CE0101960E943A122896B4
:1023D000EAE00C944A14EF92FF920F931F937B0153
:1023E0008C0180E0E81680E0F80681E0080780E0D4
:1023F000180788F48FEFE816F1040105110531F094
:1024000028F088E090E0A0E0B0E017C080E090E025
:10241000A0E0B0E012C080E0E81680E0F80680E0BE
:10242000080781E0180728F088E190E0A0E0B0E01C
:1024300004C080E190E0A0E0B0E020E230E040E0C5
:1024400050E0281B390B4A0B5B0B04C0169507950F
:10245000F794E7948A95D2F7F701ED5DFE4F8081FE
:10246000281B310941095109C9011F910F91FF90A2
:10247000EF900895DF92EF92FF920F931F93FC016C
:10248000E480F58006811781D1808081823048F414
:1024900080E090E0A0E1B0E0E82AF92A0A2B1B2BAB
:1024A000A5C0843009F49FC0823021F4EE24FF24BB
:1024B000870105C0E114F1040105110519F4E0E0FC
:1024C000F0E096C0628173819FEF623879070CF06B
:1024D0005BC022E83FEF261B370B2A3131052CF079
:1024E00020E030E040E050E02AC0B801A701022E11
:1024F00004C076956795579547950A94D2F781E081
:1025000090E0A0E0B0E004C0880F991FAA1FBB1F95
:102510002A95D2F70197A109B1098E219F21A02305
:10252000B1230097A105B10521F081E090E0A0E082
:10253000B0E09A01AB01282B392B4A2B5B2BDA0137
:10254000C9018F779070A070B07080349105A1059B
:10255000B10539F427FF09C0205C3F4F4F4F5F4F53
:1025600004C0215C3F4F4F4F5F4FE0E0F0E0203070
:10257000A0E03A07A0E04A07A0E45A0710F0E1E023
:10258000F0E079018A0127C06038710564F5FB012C
:10259000E158FF4FD801C7018F779070A070B070DD
:1025A00080349105A105B10539F4E7FE0DC080E442
:1025B00090E0A0E0B0E004C08FE390E0A0E0B0E0E5
:1025C000E80EF91E0A1F1B1F17FF05C01695079579
:1025D000F794E794319687E016950795F794E7947A
:1025E0008A95D1F705C0EE24FF248701EFEFF0E0D4
:1025F0006E2F679566276795902F9F77D794DD2478
:10260000D7948E2F8695492F462B582F5D29B701D9
:10261000CA011F910F91FF90EF90DF900895FC0188
:10262000DB01408151812281622F6F7770E0221F90
:102630002227221F9381892F880F822B282F30E099
:10264000991F9927991F11969C9311972115310570
:10265000A9F5411551056105710511F482E037C0F6
:1026600082E89FEF13969C938E9312979A01AB0189
:1026700067E0220F331F441F551F6A95D1F783E08F
:102680008C930DC0220F331F441F551F12968D913E
:102690009C911397019713969C938E9312972030D9
:1026A00080E0380780E0480780E4580758F3149624
:1026B0002D933D934D935C93179708952F3F3105CC
:1026C00079F4411551056105710519F484E08C9385
:1026D000089564FF03C081E08C9312C01C9210C067
:1026E0002F57304013963C932E93129783E08C9390
:1026F00087E0440F551F661F771F8A95D1F77064D6
:1027000014964D935D936D937C93179708951F9343
:10271000DC01FB019C91923008F447C0808182303B
:1027200008F443C0943051F411961C91843099F50B
:102730008181682F70E0611B71093FC0843021F0F6
:10274000923031F48230B9F18181882389F12DC032
:1027500011961C9111978230F1F081811817D9F4EC
:1027600012962D913C911397828193818217930742
:1027700094F028173907BCF014968D919D910D9017
:10278000BC91A02D248135814681578128173907B6
:102790004A075B0718F4112341F00AC08217930718
:1027A000A407B50740F4112319F061E070E005C0FB
:1027B0006FEF7FEF02C060E070E0CB011F910895E2
:1027C000629FD001739FF001829FE00DF11D649F15
:1027D000E00DF11D929FF00D839FF00D749FF00DA1
:1027E000659FF00D9927729FB00DE11DF91F639F42
:1027F000B00DE11DF91FBD01CF011124089597FB14
:10280000092E07260AD077FD04D00CD006D0002070
:102810001AF4709561957F4F0895F6F7909581951C
:102820009F4F0895AA1BBB1B51E107C0AA1FBB1FE6
:10283000A617B70710F0A61BB70B881F991F5A954C
:10284000A9F780959095BC01CD0108952F923F92F4
:102850004F925F926F927F928F929F92AF92BF92B0
:10286000CF92DF92EF92FF920F931F93CF93DF935C
:10287000CDB7DEB7CA1BDB0B0FB6F894DEBF0FBEB9
:10288000CDBF09942A88398848885F846E847D8406
:102890008C849B84AA84B984C884DF80EE80FD8008
:1028A0000C811B81AA81B981CE0FD11D0FB6F8947E
:1028B000DEBF0FBECDBFED010895A0E0B0E0E3E6BE
:1028C000F4E10C942E14EC01A880B980CA80DB805E
:1028D000A114B104C104D10441F484E2A82E89ED0D
:1028E000B82E8BE5C82E87E0D82EC601B5012DE1A4
:1028F00033EF41E050E00E94661727EA31E440E000
:1029000050E00E94E0137B018C01C601B5012DE16E
:1029100033EF41E050E00E946617CA01B9012CEE86
:1029200034EF4FEF5FEF0E94E0136E0D7F1D801FAD
:10293000911F97FF04C061507040804090486883A9
:1029400079838A839B839B013F77C901CDB7DEB72B
:10295000EAE00C944A140E945D14089583E292E028
:102960000E945D140895A0E0B0E08093230290934C
:102970002402A0932502B09326020895A0E0B0E0BF
:10298000E4ECF4E10C943614FE01359661917191FA
:1029900080918C0290918D02AF010E94D3142096F9
:1029A000E2E00C945214ABE0B0E0E9EDF4E10C94F9
:1029B00026143C012B015A01FC01178216828381E7
:1029C00081FD03C06FEF7FEFC6C19AE0892E1E0123
:1029D0000894211C311CF3012381F20123FD859110
:1029E00023FF81912F01882309F4B2C1853239F484
:1029F00023FD859123FF81912F01853229F490E0F9
:102A0000B3010E94DC16E7CF982FFF24EE2499240F
:102A1000FFE1FF15D0F09B3269F09C3228F4903230
:102A200059F0933291F40EC09D3249F0903369F41D
:102A300041E024C052E0F52A84E0F82A28C098E05A
:102A4000F92A25C0E0E1FE2A22C0F7FC29C0892F1F
:102A500080538A3070F4F6FE05C0989C902C1124A7
:102A6000980E15C0E89CE02C1124E80EF0E2FF2A35
:102A70000EC09E3229F4F6FC6BC140E4F42A07C074
:102A80009C3619F450E8F52A02C0983649F4F20150
:102A900023FD959123FF91912F01992309F0B8CF40
:102AA000892F8554833018F08052833038F444E005
:102AB00050E0A40EB51E5FE359830FC0933631F08A
:102AC000933779F0933509F056C020C0F501808125
:102AD000898342E050E0A40EB51E610101E010E0E0
:102AE00012C0F501C080D180F6FC03C06FEF7FEF0C
:102AF00002C0692D70E042E050E0A40EB51EC60190
:102B00000E94D1168C015FE7F52214C0F501C08048
:102B1000D180F6FC03C06FEF7FEF02C0692D70E03B
:102B200042E050E0A40EB51EC6010E94C6168C01FC
:102B300050E8F52AF3FE07C01AC080E290E0B30126
:102B40000E94DC16EA948E2D90E008171907A8F36E
:102B50000EC0F601F7FC8591F7FE81916F0190E0C0
:102B6000B3010E94DC16E110EA94015010400115F7
:102B7000110579F7EAC0943611F0993669F5F7FE38
:102B800008C0F501208131814281538184E090E0C9
:102B90000AC0F501808191819C01442737FD409551
:102BA000542F82E090E0A80EB91E9FE6F92257FF4D
:102BB00009C050954095309521953F4F4F4F5F4F3D
:102BC000E0E8FE2ACA01B901A1012AE030E00E9432
:102BD0000817D82ED21840C0953729F41F2D1F7E14
:102BE0002AE030E01DC01F2D197F9F3661F090371D
:102BF00020F4983509F0ACC00FC0903739F0983701
:102C000009F0A6C004C028E030E00AC0106114FD3D
:102C1000146020E130E004C014FD166020E132E0D1
:102C200017FF08C0F501608171818281938144E0C2
:102C300050E008C0F50180819181BC0180E090E006
:102C400042E050E0A40EB51EA1010E940817D82E44
:102C5000D2188FE7F82EF122F6FE0BC05EEFF522B8
:102C6000D91438F4F4FE07C0F2FC05C08FEEF82248
:102C700002C01D2D01C0192DF4FE0DC0FE01ED0D89
:102C8000F11D8081803319F499EEF92208C01F5F8D
:102C9000F2FE05C003C08F2D867809F01F5F0F2D4F
:102CA000F3FC14C0F0FE0FC01E1510F09D2C0BC0DD
:102CB0009D2C9E0C911A1E2D06C080E290E0B3015F
:102CC0000E94DC161F5F1E15C0F304C01E1510F411
:102CD000E11A01C0EE2404FF0FC080E390E0B301CD
:102CE0000E94DC1602FF1DC001FD03C088E790E0D2
:102CF0000EC088E590E00BC0802F867891F001FF30
:102D000002C08BE201C080E2F7FC8DE290E0B301EB
:102D10000E94DC1606C080E390E0B3010E94DC163E
:102D20009A94D914C0F3DA94F101ED0DF11D80816C
:102D300090E0B3010E94DC16DD20A9F706C080E216
:102D400090E0B3010E94DC16EA94EE20C1F743CE76
:102D5000F30166817781CB012B96E2E10C9442145A
:102D6000F999FECF92BD81BDF89A992780B5089553
:102D7000262FF999FECF1FBA92BD81BD20BD0FB697
:102D8000F894FA9AF99A0FBE01960895FC010590FD
:102D9000615070400110D8F7809590958E0F9F1F5D
:102DA0000895FC016150704001900110D8F78095A2
:102DB00090958E0F9F1F08950F931F93CF93DF93CE
:102DC0008C01EB018B8181FF1BC082FF0DC02E8126
:102DD0003F818C819D812817390764F4E881F9814E
:102DE0000193F983E88306C0E885F985802F09956A
:102DF000892B31F48E819F8101969F838E8302C03F
:102E00000FEF1FEFC801DF91CF911F910F91089530
:102E1000FA01AA27283051F1203181F1E8946F930B
:102E20006E7F6E5F7F4F8F4F9F4FAF4FB1E03ED0B1
:102E3000B4E03CD0670F781F891F9A1FA11D680F4F
:102E4000791F8A1F911DA11D6A0F711D811D911D82
:102E5000A11D20D009F468943F912AE0269F1124F7
:102E60003019305D3193DEF6CF010895462F47705B
:102E7000405D4193B3E00FD0C9F7F6CF462F4F70B6
:102E8000405D4A3318F0495D31FD4052419302D014
:102E9000A9F7EACFB4E0A6959795879577956795BA
:102EA000BA95C9F700976105710508959B01AC01BA
:102EB0000A2E06945795479537952795BA95C9F7E1
:102EC000620F731F841F951FA01D089597FB092E85
:102ED00005260ED057FD04D014D00AD0001C38F4BB
:102EE00050954095309521953F4F4F4F5F4F089536
:102EF000F6F790958095709561957F4F8F4F9F4F16
:102F00000895A1E21A2EAA1BBB1BFD010DC0AA1F2A
:102F1000BB1FEE1FFF1FA217B307E407F50720F042
:102F2000A21BB30BE40BF50B661F771F881F991FBD
:102F30001A9469F760957095809590959B01AC0106
:0A2F4000BD01CF010895F894FFCF02
:102F4A0025640A0000000002000000005C00000086
:102F5A000000C100C200C5007602AA0000000000FD
:102F6A000000000001020203030303040404040432
:102F7A0004040405050505050505050505050505FA
:102F8A0005050506060606060606060606060606DA
:102F9A0006060606060606060606060606060606C7
:102FAA0006060607070707070707070707070707AA
:102FBA000707070707070707070707070707070797
:102FCA000707070707070707070707070707070787
:102FDA000707070707070707070707070707070777
:102FEA00070707080808080808080808080808085A
:102FFA000808080808080808080808080808080847
:10300A000808080808080808080808080808080836
:10301A000808080808080808080808080808080826
:10302A000808080808080808080808080808080816
:10303A000808080808080808080808080808080806
:10304A0008080808080808080808080808080808F6
:10305A0008080808080808080808080808080808E6
:08306A00080808010000000045
:00000001FF
