:107000000C9434380C9451380C9451380C945138F9
:107010000C9451380C9451380C9451380C945138CC
:107020000C9451380C9451380C9451380C94973975
:107030000C9451380C9451380C9472390C9451388A
:107040000C9451380C9451380C9451380C9451389C
:107050000C9451380C9451380C9451380C94B93923
:107060000C9451380C94513811241FBECFEFD8E046
:10707000DEBFCDBF11E0A0E0B1E0E2ECF7E702C077
:1070800005900D92A830B107D9F711E0A8E0B1E062
:1070900001C01D92A73CB107E1F70E9459380C943A
:1070A000DF3B0C94003881E085BF15BE0C940000D6
:1070B00008950F931F93CF93DF93F89481E085BFDA
:1070C00082E085BFE8E0F1E0119281E0E432F80768
:1070D000D9F78CED80932701109224011092AE0114
:1070E0001092290110922801789486E998E39093F0
:1070F0000101809300010E94A63A00E117E2C8EC6A
:10710000D0E080E30E947339C8010197F1F780E075
:107110000E94733920E030E0CE010197F1F72F5F34
:107120003F4F87E220313807B9F7EBCFDC011996E2
:107130008C9119978138E1F0823869F0803809F430
:10714000C9C080912401882329F481E085BF15BE40
:107150000C94000008959C91909327018091240144
:107160009817C1F781E085BF15BE0C940000089503
:10717000B0932601A09325019C918091AE019817B0
:1071800031F09093AE0110922901109228011196CE
:10719000EC911197F0E0EE0FFF1FE65DFE4F1296A7
:1071A0008D919C911397918380831196EC91119707
:1071B000F0E0EE0FFF1FE45DFE4F14968D919C9161
:1071C0001597918380831196EC911197F0E0EE0F63
:1071D000FF1FE25DFE4F16968D919C91179791834C
:1071E000808380912801909129010696909329012E
:1071F000809328018038910508F468C0E091AE01C1
:107200004E2F50E0E695E695E695F0E0E85FFE4FFC
:10721000808190E09A012770307002C09595879523
:107220002A95E2F780FD52C0F999FECF5695542F6A
:1072300044275795479583E0FA0180935700E895D6
:1072400007B600FCFDCF20E030E061E0F901E40F7B
:10725000F51FD901A65DBE4F8D919C910C016093E5
:107260005700E89511242E5F3F4F2038310571F704
:1072700085E0FA0180935700E89507B600FCFDCF42
:1072800081E180935700E8958CE00E94733920914A
:10729000AE01E22FE695E695E695F0E0E85FFE4F59
:1072A000277081E090E002C0880F991F2A95E2F7CD
:1072B0002081282B2083809124018F5F80932401DB
:1072C00090912701891709F44DCF089580E10E941C
:1072D000733908950C9400380895089580E090E083
:1072E00008950895189580FF11C0559A81FF11C027
:1072F000549A82FF11C03B9A83FF11C03A9A84FFCF
:1073000011C03D9A85FD11C03C980895559881FDA6
:10731000EFCF549882FDEFCF3B9883FDEFCF3A98A3
:1073200084FDEFCF3D9885FFEFCF3C9A08951F92E3
:107330000F920FB60F9211248F939F93109281009A
:10734000109285001092840091E09093AF01909389
:10735000B7011092B60110927C0083EA80937A0004
:1073600090937B009F918F910F900FBE0F901F9075
:1073700018951F920F920FB60F9211240F931F931F
:107380002F933F934F935F936F937F938F939F932D
:10739000AF93BF93EF93FF9360918400709185004A
:1073A00001E00093B6018091AF018823A9F110920A
:1073B000850010928400009381001092C601109203
:1073C000AF018091B7018823A1F080917A0086FDFA
:1073D000FCCF80917800909179009093B5018093D3
:1073E000B40191E090937C0083EA80937A009093BB
:1073F0007B00FF91EF91BF91AF919F918F917F9112
:107400006F915F914F913F912F911F910F910F902D
:107410000FBE0F901F901895CB018758904084574E
:10742000994008F04AC06658704080E090E024EF30
:1074300030E040E050E00E94B83BBC01882799272B
:10744000683008F471C00093AF018091B7018823C0
:1074500009F047C08091B101E0910601F091070168
:10746000E80FF11D8091C60180838091B1018F5F8B
:107470008093B1018C3009F0BCCF10928100109242
:107480008500109284000093B7011092B60100911C
:10749000C2011091C30188EB91E00E94FF3A0817E6
:1074A000190709F0A6CFE0910001F091010188EBE6
:1074B00091E062EB71E009959CCF109281001092EF
:1074C0008500109284000093AF010093B7011092E1
:1074D000B60110927C0083EA80937A0000937B00CF
:1074E00088CF80917A0086FDFCCF809178009091C2
:1074F00079009093B3018093B20110927C0083EAEB
:1075000080937A0091E090937B008091C60188235C
:10751000C1F0109281001092850010928400909327
:10752000B7011092B60165CF81E090E002C0880FEC
:10753000991F6A95E2F72091C601282B2093C60176
:1075400058CF1092B7011092B10153CFF89414B8EC
:1075500017B81AB815B818B81BB8529A5A9A14BC6A
:1075600085E085BD8FEF87BD22E020936E001092ED
:107570008000109281008FE89BE0909389008093B7
:10758000880020936F005398239881EA8093B0007D
:107590002093B1001092B4001092B3008BE080BF32
:1075A00083E080937F0086E080937C0083E8809373
:1075B0007A0080917A00806480937A0080917A00CA
:1075C00086FDFCCF10927C0083EA80937A0081E0F4
:1075D00080937B0081E090E00E94D73B8F3F11F0C9
:1075E000809366001092B60181E08093AF01809392
:1075F000B7011092B1011092C60178940895FC0170
:1076000080812FEF3FEF2827022E2295207F202513
:10761000032E322F22952F700226269532272327FC
:10762000220F220F220F202581812827022E22954A
:10763000207F2025032E322F22952F70022626959B
:1076400032272327220F220F220F2025828128276D
:10765000022E2295207F2025032E322F22952F7077
:107660000226269532272327220F220F220F2025BC
:1076700083812827022E2295207F2025032E322F5A
:1076800022952F700226269532272327220F220FBC
:10769000220F202584812827022E2295207F202555
:1076A000032E322F22952F7002262695322723276C
:1076B000220F220F220F202585812827022E2295B6
:1076C000207F2025032E322F22952F70022626950B
:1076D00032272327220F220F220F202586812827D9
:1076E000022E2295207F2025032E322F22952F70E7
:1076F0000226269532272327220F220F220F20252C
:1077000087812827022E2295207F2025032E322FC5
:1077100022952F700226269532272327220F220F2B
:10772000220F202580852827022E2295207F2025C4
:10773000032E322F22952F700226269532272327DB
:10774000220F220F220F202581852827022E229525
:10775000207F2025032E322F22952F70022626957A
:1077600032272327220F220F220F2025C901089537
:10777000629FD001739FF001829FE00DF11D649F15
:10778000E00DF11D929FF00D839FF00D749FF00DA1
:10779000659FF00D9927729FB00DE11DF91F639F42
:1077A000B00DE11DF91FBD01CF0111240895F99914
:1077B000FECF92BD81BDF89A992780B50895F894BF
:0277C000FFCFF9
:0877C2006D396E397139B8010F
:040000030000700089
:00000001FF
