:100000000C9434000C945A000C945A000C945A002E
:100010000C945A000C945A000C94B9000C945A0099
:100020000C945A000C945A000C945A000C94E4045A
:100030000C945A000C945A000C9430070C945A00FB
:100040000C945A000C945A000C945A000C945A00C8
:100050000C945A000C945A000C945A000C94060507
:100060000C945A000C945A0011241FBECFEFD8E014
:10007000DEBFCDBF14BE88E10FB6F8948093600058
:10008000109260000FBE12E0A0E0B1E0E0E3FFE2FA
:1000900002C005900D92A033B107D9F712E0A0E39A
:1000A000B2E001C01D92A839B107E1F70E948600B5
:1000B0000C9496170C9400008093C6008091C000A9
:1000C00085FFFCCF80E090E00895F894519A8CE091
:1000D00090E09093C5008093C400E0ECF0E0808154
:1000E0008D7F8083E2ECF0E0808186608083E1ECAC
:1000F000F0E08081886080838DE091E090939502AC
:100100008093940278940895089508950E94A80712
:10011000F894519A8CE090E09093C5008093C400CD
:10012000E0ECF0E080818D7F8083E2ECF0E0808184
:1001300086608083E1ECF0E08081886080838DE0E0
:1001400091E09093950280939402789400D080E09F
:1001500091E0EDB7FEB7928381830E94B1140F90B6
:100160000F9080E090E00895089580E090E0089579
:1001700008951F920F920FB60F9211248F9388E16A
:100180000FB6F89480936000109260000FBE8F91BC
:100190000F900FBE0F901F901895009739F020ED2B
:1001A00037E0F9013197F1F70197D9F70895809376
:1001B000B3006093B40008958FEF8093B3008093F1
:1001C000B40080ED97E0FC013197F1F7FC01319725
:1001D000F1F7FC013197F1F7FC013197F1F7FC01E0
:1001E0003197F1F7FC013197F1F7FC013197F1F705
:1001F000FC013197F1F7FC013197F1F7FC013197E0
:10020000F1F7FC013197F1F7FC013197F1F7FC01AF
:100210003197F1F7FC013197F1F70197F1F7089564
:1002200080915B028823F9F4F89487E080937C0046
:1002300083E880937A0080917A00806480937A00CA
:1002400080917A0086FDFCCF209178003091790072
:1002500010927C0083EA80937A0081E080937B0097
:100260007894C90108952FEF3FEFC9010895809157
:100270005B028823F9F4F89488EC80937C0087E88B
:1002800080937A0080917A00806480937A008091D4
:100290007A0086FDFCCF2091780030917900109291
:1002A0007C0083EA80937A0081E080937B007894DD
:1002B000C90108952FEF3FEFC9010895CF93DF9350
:1002C000B0E060E070E0F3EAA1E056E0E3E8C1E00E
:1002D000D0E020E030E0F89450937C00E0937A0086
:1002E00080917A00806480937A0080917A0086FD04
:1002F000FCCF8091780090917900482F41708091D7
:100300007A00806480937A0080917A0086FDFCCF29
:10031000809178009091790010927C00F0937A009F
:10032000A0937B0078948170481729F42F5F3F4F8A
:100330002038310581F6442341F0CE01062E02C05B
:10034000880F991F0A94E2F7B82B6F5F7F4F6830D0
:10035000710509F0BECF8B2FDF91CF910895809169
:100360002301982F990F990F990F98272091320206
:10037000822F8695869589279295969597708927DD
:10038000809323012F5F20933202089580932301ED
:10039000089580915B028823B9F4F89486E08093F5
:1003A0007C0083E880937A0080917A008064809357
:1003B0007A0080917A0086FDFCCF20917800309100
:1003C00079007894C90108952FEF3FEFC90108958E
:1003D0002F923F924F925F926F927F928F929F9255
:1003E000AF92BF92CF92DF92EF92FF920F931F9343
:1003F000DF93CF9300D000D00F92CDB7DEB71C01B2
:10040000DC0112964D905C901397B4E84B16B3E064
:100410005B060CF49DC0EFEFED83BDEB4B16B2E035
:100420005B06D4F48D818F5D0F900F900F900F902D
:100430000F90CF91DF911F910F91FF90EF90DF9080
:10044000CF90BF90AF909F908F907F906F905F9074
:100450004F903F902F900895F1010081118180917C
:100460005C0290915D028017910708F443C1E0900F
:100470005E02F0905F02E016F10608F415C2E0900B
:100480006002F0906102E016F10608F416C2E090F6
:100490006202F0906302E016F10608F417C2E090E1
:1004A0006402F0906502E016F10608F418C2E090CC
:1004B0006602F0906702E016F10608F46EC1E09063
:1004C0006802F0906902E016F10608F411C2E090AB
:1004D0006A02F0906B02E016F10608F412C2E09096
:1004E0006C02F0906D02E016F10608F413C2E09081
:1004F0006E02F0906F02E016F10608F414C2E0906C
:100500007002F0907102E016F10608F415C2E09056
:100510007202F0907302E016F10608F41AC2E0903D
:100520007402F0907502E016F10608F41BC2E09028
:100530007602F0907702E016F10608F41CC28AE514
:10054000382E2D812F3F09F0DAC0832D8F5D6CCFBF
:1005500080913502909136028415950508F4C8C043
:10056000E0903702F0903802E414F50408F4A1C1D9
:10057000E0903902F0903A02E414F50408F4A2C1C4
:10058000E0903B02F0903C02E414F50408F4A3C1AF
:10059000E0903D02F0903E02E414F50408F4A4C19A
:1005A000E0903F02F0904002E414F50408F460C1CA
:1005B000E0904102F0904202E414F50408F49DC179
:1005C000E0904302F0904402E414F50408F49EC164
:1005D000E0904502F0904602E414F50408F49FC14F
:1005E000E0904702F0904802E414F50408F4A0C13A
:1005F000E0904902F0904A02E414F50408F4A1C125
:10060000E0904B02F0904C02E414F50408F49DC114
:10061000E0904D02F0904E02E414F50408F49EC1FF
:10062000E0904F02F0905002E414F50408F49FC1EA
:100630000CE010E080E090E0A0EDB0E489839A83C4
:10064000AB83BC83000F111F0B5C1D4FD8018D9134
:100650009C91B701681B790B80E090E00E946511C6
:100660009B01AC010E94B00E3B014C01B2018827F6
:1006700077FD8095982F0E94B3105B016C01B70144
:1006800080E090E00E9465117B018C01C401B30100
:1006900029813A814B815C810E94DD0E9B01AC0176
:1006A000C801B7010E947F0E9B01AC01C601B501D4
:1006B0000E947F0E20E030E040E251E40E94DD0E17
:1006C0000E9411117B018C01C401B3010E94111120
:1006D0009B01AC01C701B9010E94F213882777FD85
:1006E0008095982F0E94B3100E94070D6D8395CEC0
:1006F0001D8293CE33242D812F3F09F426CFB201E2
:10070000882777FD8095982F0E94B3105B016C01BC
:10071000AD816A2F70E080E090E00E9465117B015E
:100720008C0160E070E081E694E4A60195010E94EE
:100730007F0E9B01AC01C801B7010E94DD0E3B0199
:100740004C01632D70E080E090E00E9465117B0118
:100750008C01C601B50120E030E04FE254E40E9474
:100760007F0E9B01AC01C801B7010E94DD0E9B0109
:10077000AC01C401B3010E94B00E20E030E048E4B7
:1007800053E40E94D70F20E030E044E052E40E949E
:10079000B00E0E94070D862F47CEA5E03A2EE5E069
:1007A000F0E0EE0FFF1FE65AFD4F80819181B70107
:1007B000681B790B80E090E00E9465119B01AC0101
:1007C0000E94B00E3B014C01B801882777FD80954F
:1007D000982F0E94B3105B016C01B70180E090E09C
:1007E0000E9465117B018C01632D70E080E090E038
:1007F0000E94651120E030E040E05FE30E94DD0EE2
:1008000020E030E040E050E00E94B00EA4019301EF
:100810000E94DD0E9B01AC01C801B7010E947F0E52
:100820009B01AC01C601B5010E947F0E20E030E0C3
:1008300040E251E40E94DD0E0E9411117B018C0107
:10084000C401B3010E9411119B01AC01C701B901A0
:100850000E94F213882777FD8095982F0E94B3108D
:100860000E94070D362EFFEF6F1709F044CFDACD47
:1008700085E090E065E08C010150104070E080E080
:1008800090E00E94651120E030E040E05FE30E94CC
:10089000DD0E20E030E040E050E00E94B00E6983C1
:1008A0007A838B839C83CECE33243394E1E0F0E0D3
:1008B00078CF81E090E061E0DECF92E0392EE2E097
:1008C000F0E06FCF82E090E062E0D5CF83E0382E99
:1008D000E3E0F0E066CF83E090E063E0CCCFB4E00B
:1008E0003B2EE4E0F0E05DCF84E090E064E0C3CF35
:1008F000F6E03F2EE6E0F0E054CF86E090E066E0E0
:10090000BACFE7E03E2EE7E0F0E04BCF87E090E0A3
:1009100067E0B1CF78E0372EE8E0F0E042CF88E042
:1009200090E068E0A8CF69E0362EE9E0F0E039CF4A
:1009300089E090E069E09FCF5AE0352EEAE0F0E0F0
:1009400030CF8AE090E06AE096CF8BE090E06BE0F9
:1009500092CF4BE0342EEBE0F0E023CF8CE090E040
:100960006CE089CF3CE0332EECE0F0E01ACF8DE074
:1009700090E06DE080CF2DE0322EEDE0F0E011CF81
:1009800080FF11C0559A81FF11C0549A82FF11C097
:100990003B9A83FF11C03A9A84FF11C03D9A85FDAE
:1009A00011C03C980895559881FDEFCF549882FD71
:1009B000EFCF3B9883FDEFCF3A9884FDEFCF3D9882
:1009C00085FFEFCF3C9A08951F920F920FB60F92BA
:1009D00011248F939F9310928100109285001092A2
:1009E000840091E0909334029093780210925B021D
:1009F00010927C0083EA80937A0090937B009F9111
:100A00008F910F900FBE0F901F9018951F920F920D
:100A10000FB60F9211240F931F932F933F934F9371
:100A20005F936F937F938F939F93AF93BF93EF9356
:100A3000FF93609184007091850001E000935B0258
:100A4000809134028823A9F11092850010928400CD
:100A50000093810010928C021092340280917802EF
:100A60008823A1F080917A0086FDFCCF80917800E8
:100A700090917900909356028093550291E0909363
:100A80007C0083EA80937A0090937B00FF91EF9142
:100A9000BF91AF919F918F917F916F915F914F9196
:100AA0003F912F911F910F910F900FBE0F901F90AC
:100AB0001895CB01875890408457994008F066C03C
:100AC0006658704080E090E024EF30E040E050E075
:100AD0000E94D313BC0188279927683008F48DC081
:100AE0000093340280917802882309F063C08091DA
:100AF0005202E0912101F0912201E80FF11D809155
:100B00008C028083809152028F5F809352028C30DE
:100B100009F0BCCF109281001092850010928400E1
:100B20000093780210925B02009188021091890272
:100B30008EE792E00E94CB0B0817190709F0A6CFA9
:100B40009091870297FF6BC0892F8858833030F0CF
:100B5000539823981092B4001092B300963809F479
:100B6000D2C0973808F065C0933809F4D0C09438E3
:100B700008F068C0903809F089CF80916E008D7FB1
:100B800080936E0016BCE0E0F0E7099510928100BA
:100B90001092850010928400009334020093780232
:100BA00010925B0210927C0083EA80937A0000939B
:100BB0007B006CCF80917A0086FDFCCF809178001D
:100BC00090917900909354028093530210927C008C
:100BD00083EA80937A0091E090937B0080918C026D
:100BE0008823C1F010928100109285001092840039
:100BF0009093780210925B0249CF81E090E002C0AE
:100C0000880F991F6A95E2F720918C02282B209378
:100C10008C023CCF109278021092520237CFE091B2
:100C20001B01F0911C018EE792E063E572E00995EB
:100C30002DCF983809F46EC0983870F482E0809314
:100C4000330224CF943809F479C0953809F01ECFC7
:100C500081E0809333021ACF993809F498C09A380A
:100C600009F014CF80917E02823009F4BEC0833037
:100C700008F074C0882309F064C080913302863084
:100C800009F004CF80EB90E060918D020E94AB16DA
:100C900060918E0281EB90E00E94AB1685E090E0BF
:100CA000609191020E94AB1689E090E060917D0214
:100CB0000E94AB168CE090E060918F020E94AB1610
:100CC00084E190E0609190020E94AB1653982398C3
:100CD0001092B4001092B30081E0809333028091AF
:100CE0007E02882309F4D2CE80913302863009F443
:100CF000CDCE539A239A1092B4001092B30086E09E
:100D000080933302C3CE85E080933302BFCEE0E010
:100D1000F0E0099580913302833009F4B7CE8091D9
:100D20003302843009F4B2CE539A239A1092B4005D
:100D30001092B30083E080933302A8CE1092330266
:100D4000A5CE813071F680917F02909180029093C0
:100D50008E0280938D0210923002C6CF833009F448
:100D60005BC0843009F0BDCF80913002833009F43C
:100D70004AC020918402909183021092310283E054
:100D80008093300290938F0220939002ADCF809198
:100D90003302863091F0539A239A1092B400109245
:100DA000B30080E00E94C0041092300280913002B3
:100DB0008093310286E08093330281E090E00090DE
:100DC0007E0202C0880F991F0A94E2F720918D02DB
:100DD00030918E0282239323892B19F410923002D2
:100DE00055CE81E08093300251CE80913002813027
:100DF00009F1909181021092310281E080933002DA
:100E00009093910271CF20918402809190022817D3
:100E1000C1F090918302B1CF809130028230C9F04D
:100E2000909182021092310282E08093300290937E
:100E30007D025ACF90918102809191029817D9F644
:100E400053CF9091830280918F02981709F095CF2C
:100E50004BCF9091820280917D02981719F744CF71
:100E60001F920F920FB60F9211242F933F934F931F
:100E70005F936F937F938F939F93AF93BF93EF9302
:100E8000FF932091790230917A0280917B029091B8
:100E90007C02280F391F30937C0220937B028FEF56
:100EA00090E090937A02809379028FEF87BD8091D2
:100EB000570290915802A0915902B0915A0201969E
:100EC000A11DB11D8093570290935802A09359021F
:100ED000B0935A0280915B02882359F480918A0270
:100EE00090918B028217930720F480913302843013
:100EF00089F0FF91EF91BF91AF919F918F917F9179
:100F00006F915F914F913F912F910F900FBE0F9076
:100F10001F901895E0911D01F0911E010995009711
:100F200041F30E94840C882349F40E94A11490E0AC
:100F300090937A028093790287BDDBCFE0911F0105
:100F4000F0912001099510927C0210927B02D1CF82
:100F50000F931F93F89414B817B81AB815B818B8A7
:100F60001BB8529A5A9A14BC85E085BD8FEF87BD95
:100F700022E020936E0010928000109281008FE892
:100F80009BE0909389008093880020936F00539892
:100F9000239881EA8093B0002093B1001092B400AE
:100FA0001092B3008BE080BF83E080937F0086E0E7
:100FB00080937C0083E880937A0080917A0080643B
:100FC00080937A0080917A0086FDFCCF10927C009D
:100FD00083EA80937A0081E080937B0081E090E057
:100FE0000E94A3168F3F11F08093660010925B025F
:100FF00011E0109334021093780210925202109272
:101000008C0280E990E00E94A316809351028091A7
:101010005102887311F01093510210927C021092C9
:101020007B028FEF90E090937A0280937902109286
:101030005702109258021092590210925A0281E0FF
:101040008093330282E49FE090938B0280938A0224
:1010500080EB90E00E94A316082F81EB90E00E94A5
:10106000A316382F20E010E0202B312B30938E0276
:1010700020938D0285E090E00E94A3168093910258
:1010800089E090E00E94A31680937D028CE090E0BE
:101090000E94A31680938F0284E190E00E94A31621
:1010A0008093900280E290E00E94A316182F81E2C4
:1010B00090E00E94A316312F20E090E0282B392BDE
:1010C00030935D0220935C0280E590E00E94A316BD
:1010D000182F81E590E00E94A316312F20E090E0C8
:1010E000282B392B309336022093350282E290E090
:1010F0000E94A316182F83E290E00E94A316312FBE
:1011000020E090E0282B392B30935F0220935E0281
:1011100082E590E00E94A316182F83E590E00E94DC
:10112000A316312F20E090E0282B392B3093380282
:101130002093370284E290E00E94A316182F85E2E4
:1011400090E00E94A316312F20E090E0282B392B4D
:10115000309361022093600284E590E00E94A31620
:10116000182F85E590E00E94A316312F20E090E033
:10117000282B392B30933A022093390286E290E0F3
:101180000E94A316182F87E290E00E94A316312F29
:1011900020E090E0282B392B3093630220936202E9
:1011A00086E590E00E94A316182F87E590E00E9444
:1011B000A316312F20E090E0282B392B30933C02EE
:1011C00020933B0288E290E00E94A316182F89E248
:1011D00090E00E94A316312F20E090E0282B392BBD
:1011E000309365022093640288E590E00E94A31684
:1011F000182F89E590E00E94A316312F20E090E09F
:10120000282B392B30933E0220933D028AE290E056
:101210000E94A316182F8BE290E00E94A316312F94
:1012200020E090E0282B392B309367022093660250
:101230008AE590E00E94A316182F8BE590E00E94AB
:10124000A316312F20E090E0282B392B3093400259
:1012500020933F028CE290E00E94A316182F8DE2AB
:1012600090E00E94A316312F20E090E0282B392B2C
:1012700030936902209368028CE590E00E94A316E7
:10128000182F8DE590E00E94A316312F20E090E00A
:10129000282B392B30934202209341028EE290E0BA
:1012A0000E94A316182F8FE290E00E94A316312F00
:1012B00020E090E0282B392B30936B0220936A02B8
:1012C0008EE590E00E94A316182F8FE590E00E9413
:1012D000A316312F20E090E0282B392B30934402C5
:1012E0002093430280E390E00E94A316182F81E32D
:1012F00090E00E94A316312F20E090E0282B392B9C
:1013000030936D0220936C0280E690E00E94A31659
:10131000182F81E690E00E94A316312F20E090E084
:10132000282B392B309346022093450282E390E02C
:101330000E94A316182F83E390E00E94A316312F7A
:1013400020E090E0282B392B30936F0220936E021F
:1013500082E690E00E94A316182F83E690E00E9498
:10136000A316312F20E090E0282B392B3093480230
:101370002093470284E390E00E94A316182F85E390
:1013800090E00E94A316312F20E090E0282B392B0B
:10139000309371022093700284E690E00E94A316BD
:1013A000182F85E690E00E94A316312F20E090E0F0
:1013B000282B392B30934A022093490286E390E090
:1013C0000E94A316182F87E390E00E94A316312FE6
:1013D00020E090E0282B392B309373022093720287
:1013E00086E690E00E94A316182F87E690E00E9400
:1013F000A316312F20E090E0282B392B30934C029C
:1014000020934B0288E390E00E94A316182F89E3F3
:1014100090E00E94A316312F20E090E0282B392B7A
:10142000309375022093740288E690E00E94A31620
:10143000182F89E690E00E94A316312F20E090E05B
:10144000282B392B30934E0220934D028AE390E0F3
:101450000E94A316182F8BE390E00E94A316312F51
:1014600020E090E0282B392B3093770220937602EE
:101470008AE690E00E94A316182F8BE690E00E9467
:10148000A316312F20E090E0282B392B3093500207
:1014900020934F0278941F910F9108952F923F92BD
:1014A0004F925F926F927F928F929F92AF92BF9274
:1014B000CF92DF92EF92FF920F931F93CF93DF9320
:1014C0006C018B01FF24A0EDAA2EA7E0BA2EC8EC78
:1014D000D0E0EE24EA94F0E38F2EF5E79F2EE6E0CD
:1014E0007E2E73E8672E68E1462E512C59E2352E88
:1014F00044E0242E80913302833079F18430B8F5B2
:10150000813009F4CBC0823008F461C080915B0265
:10151000882309F008C1F89470927C0060927A00E8
:1015200080917A00806480937A0080917A0086FDB1
:10153000FCCF2091780030917900789442E02B3AEA
:1015400034070CF4F7C0559854983B9A3A9A3D9852
:101550003C9880913302833089F6FF2009F4E0C083
:1015600020923302FF24F394F8010995C3CF85300C
:1015700089F08530C8F3863009F0BCCF8091300205
:10158000882309F0A6C01092B3001092B400109204
:101590003102B0CF489963C0559A54983B983A9815
:1015A0003D983C98C5010197F1F7559854983B98A0
:1015B0003A983D983C9820E030E0CE010197F1F751
:1015C0002F5F3F4F87E0203D3807B9F793CFF8945E
:1015D00080B7877F80BF80917A008F7780937A0071
:1015E00014B817B81AB815B818B81BB80FB6F894CD
:1015F000A895409260000FBE30926000809160001C
:1016000080648093600083B7817F846083BFF89497
:1016100083B7816083BF7894889583B78E7F83BFBB
:10162000789410925B02529A5A9A80917A0080685C
:1016300080937A0088E592E00197F1F780B788619E
:1016400080BF559A549A3B9A3A9A3D9A3C9A80E2C6
:101650009EE40197F1F780915B02882339F4559855
:1016600054983B983A983D983C9844CF559A549A50
:101670003B983A983D983C9820E030E0CE010197A5
:10168000F1F72F5F3F4F43E0283E3407B9F75598F5
:1016900054983B983A983D983C982CCF559854983C
:1016A0003B9A3A9A3D983C98C5010197F1F75598B5
:1016B00054983B983A983D983C9820E030E0CE0111
:1016C0000197F1F72F5F3F4F87E0203D3807B9F7CB
:1016D00011CF9091300280913102981709F40ACF0E
:1016E000809130028093310280913002813069F123
:1016F000809130028230B9F11092B300E092B400D0
:10170000E092B300E092B400C4010197F1F7809138
:101710008F02909190028093B3009093B400EACE30
:10172000F60109951DCF559A549A3B983A983D98E1
:101730003C98E0CE82E0293838071CF1559854983F
:101740003B983A983D9A3C9AD5CEE092B3001092DD
:10175000B400C4010197F1F7809191028093B30026
:101760001092B400C7CE1092B300E092B400C4014E
:101770000197F1F780917D021092B3008093B4003D
:10178000B9CE275632407CF2559A549A3B9A3A9AEF
:101790003D983C98AFCEFC0180812FEF3FEF28278A
:1017A000022E2295207F2025032E322F22952F7086
:1017B0000226269532272327220F220F220F2025CB
:1017C00081812827022E2295207F2025032E322F6B
:1017D00022952F700226269532272327220F220FCB
:1017E000220F202582812827022E2295207F202566
:1017F000032E322F22952F7002262695322723277B
:10180000220F220F220F202583812827022E2295C6
:10181000207F2025032E322F22952F700226269519
:1018200032272327220F220F220F202584812827E9
:10183000022E2295207F2025032E322F22952F70F5
:101840000226269532272327220F220F220F20253A
:1018500085812827022E2295207F2025032E322FD6
:1018600022952F700226269532272327220F220F3A
:10187000220F202586812827022E2295207F2025D1
:10188000032E322F22952F700226269532272327EA
:10189000220F220F220F202587812827022E229532
:1018A000207F2025032E322F22952F700226269589
:1018B00032272327220F220F220F20258085282759
:1018C000022E2295207F2025032E322F22952F7065
:1018D0000226269532272327220F220F220F2025AA
:1018E00081852827022E2295207F2025032E322F46
:1018F00022952F700226269532272327220F220FAA
:10190000220F2025C90108950FB6F894A4B12091A3
:1019100051022A2B24B921E030915102203029F0C4
:10192000000025B1232B25B904C0000000000000F1
:1019300000C0000000000000309525B1232325B928
:101940002EEA2A95F1F72BEE30B735FF0AC0A4B97D
:1019500030915102309525B1232325B90FBE80E087
:10196000089500002A9581F721E03091510220303E
:1019700029F0000025B1232B25B904C00000000088
:10198000000000C0000000000000309525B12323B6
:1019900025B9000024E52A95F1F7FC018CE061915E
:1019A00070E0660F771F616072609AE041E050E07E
:1019B0009A0126233723232B30915102203029F01E
:1019C000000025B1232B25B904C000000000000051
:1019D00000C0000000000000309525B1232325B988
:1019E000000021E52A95F1F7440F551F9A9501F75C
:1019F0008A95A9F620B7206120BFA4B93091510281
:101A0000309525B1232325B90FBE81E00895EF92CB
:101A1000FF920F931F937B018C0120E030E040E0A8
:101A20005FE40E94831088238CF0C801B70120E096
:101A300030E040E05FE40E947F0E0E9411119B01A4
:101A4000AC01205030404040504806C0C801B701AA
:101A50000E9411119B01AC01B901CA011F910F91A4
:101A6000FF90EF900895A0E0B0E0E9E3FDE00C9472
:101A70001914DC012B01FA019C91923008F439C150
:101A8000EB018881823008F433C1943069F48430EA
:101A900009F02FC111969C9111978981981709F42B
:101AA00028C1A4E2B1E025C1843009F421C182300B
:101AB000A9F4923009F01DC19A01AD0188E0EA0154
:101AC0000990AE01E90109929E018150C1F7E2013E
:101AD000898111969C918923818308C1923009F4F0
:101AE00007C112962D903C901397EB018A819B8140
:101AF0001496AD90BD90CD90DC901797EC80FD8052
:101B00000E811F819101281B390BB90137FF04C0D9
:101B100066277727621B730B603271050CF061C07A
:101B2000121613066CF537014801062E04C0969470
:101B30008794779467940A94D2F721E030E040E0EC
:101B400050E004C0220F331F441F551F6A95D2F77F
:101B500021503040404050402E213F21402351230E
:101B6000211531054105510521F021E030E040E02B
:101B700050E079018A01E628F728082919293CC094
:101B8000232BD1F1260E371E35014601062E04C047
:101B900096948794779467940A94D2F721E030E082
:101BA00040E050E004C0220F331F441F551F6A95C8
:101BB000D2F721503040404050402A213B214C2157
:101BC0005D21211531054105510521F021E030E06D
:101BD00040E050E059016A01A628B728C828D92852
:101BE0000BC0821593052CF01C01AA24BB246501AF
:101BF00003C0EE24FF24870111969C91D201119617
:101C00008C91981709F445C0992339F0A8019701E0
:101C10002A193B094C095D0906C0A60195012E1938
:101C20003F09400B510B57FD08C0118233822282BD
:101C300024833583468357831DC081E081833382AB
:101C4000228288279927DC01821B930BA40BB50BFA
:101C500084839583A683B7830DC0220F331F441F4F
:101C6000551F24833583468357838281938101974F
:101C7000938382832481358146815781DA01C901AA
:101C80000197A109B1098F5F9F4FAF4FBF4328F361
:101C90000BC0918333822282EA0CFB1C0C1D1D1D9C
:101CA000E482F5820683178383E080832481358173
:101CB0004681578157FF1AC0C901AA2797FDA095F1
:101CC000BA2F81709070A070B07056954795379577
:101CD0002795822B932BA42BB52B84839583A683E6
:101CE000B78382819381019693838283DF0101C050
:101CF000D201CD01CDB7DEB7E2E10C943514A0E2FC
:101D0000B0E0E5E8FEE00C94251469837A838B83C8
:101D10009C832D833E834F835887E9E0EE2EF12C80
:101D2000EC0EFD1ECE010196B7010E9402138E013A
:101D30000F5E1F4FCE010596B8010E9402138A89DB
:101D400091E089278A8BC701B801AE01475E5F4FDA
:101D50000E94330D0E942D12A096E6E00C944114CF
:101D6000A0E2B0E0E6EBFEE00C94251469837A83F0
:101D70008B839C832D833E834F835887F9E0EF2E1E
:101D8000F12CEC0EFD1ECE010196B7010E9402134C
:101D90008E010F5E1F4FCE010596B8010E940213FF
:101DA000C701B801AE01475E5F4F0E94330D0E942C
:101DB0002D12A096E6E00C944114A0E2B0E0E3EE10
:101DC000FEE00C94191469837A838B839C832D83A2
:101DD0003E834F835887CE010196BE01675F7F4FD8
:101DE0000E940213CE010596BE016F5E7F4F0E94D6
:101DF00002139985923088F089898230C8F0943036
:101E000019F4823051F404C0843029F4923081F402
:101E100084E291E0C6C0923049F420E09A858A8934
:101E2000981321E02A87CE010996BBC0823049F47D
:101E300020E09A858A89981321E02A8BCE01419669
:101E4000B0C02D843E844F8458886D887E888F88EA
:101E5000988CEE24FF248701AA24BB24650140E06E
:101E600050E060E070E0E0E0F0E0C101817090706F
:101E7000892BE9F0E60CF71C081D191D9A01AB012E
:101E80002A0D3B1D4C1D5D1D80E090E0A0E0B0E000
:101E9000E614F7040805190520F481E090E0A0E0BD
:101EA000B0E0BA01A901480F591F6A1F7B1FAA0C95
:101EB000BB1CCC1CDD1C97FE08C081E090E0A0E0BC
:101EC000B0E0A82AB92ACA2ADB2A3196E032F10505
:101ED00049F0660C771C881C991C569447943794DB
:101EE0002794C3CFFA85EA892B893C898B859C8509
:101EF000280F391F2E5F3F4F17C0CA0181709070A5
:101F0000892B61F016950795F794E79480E090E0AF
:101F1000A0E0B0E8E82AF92A0A2B1B2B76956795F2
:101F2000579547952F5F3F4F77FDE7CF0CC0440F84
:101F3000551F661F771F17FD4160EE0CFF1C001F29
:101F4000111F21503040403090E0590790E0690760
:101F500090E4790760F32B8F3C8FDB01CA018F7708
:101F60009070A070B07080349105A105B10561F446
:101F700047FD0AC0E114F1040105110529F0405C98
:101F80005F4F6F4F7F4F40781A8EFE1711F081E040
:101F90008A8F4D8F5E8F6F8F78A383E0898FCE01FC
:101FA00049960E942D12A096E2E10C943514A8E106
:101FB000B0E0EDEDFFE00C94211469837A838B830C
:101FC0009C832D833E834F835887B9E0EB2EF12C01
:101FD000EC0EFD1ECE010196B7010E9402138E0188
:101FE0000F5E1F4FCE010596B8010E94021329858E
:101FF000223008F47EC03989323010F4B8017CC038
:102000008A859A8989278A87243011F0223031F411
:10201000231709F06EC064E271E06EC0343039F409
:102020001D861E861F86188A1C861B8604C03230B9
:1020300021F484E08987B7015FC02B853C858B89BB
:102040009C89281B390B3C872B87ED84FE840F85E8
:102050001889AD88BE88CF88D88CEA14FB040C059B
:102060001D0540F4EE0CFF1C001F111F21503040D5
:102070003C872B8720E030E040E050E080E090E0BB
:10208000A0E0B0E460E070E0EA14FB040C051D057C
:1020900040F0282B392B4A2B5B2BEA18FB080C0944
:1020A0001D09B695A79597958795EE0CFF1C001F07
:1020B000111F6F5F7F4F6F31710531F7DA01C90171
:1020C0008F779070A070B07080349105A105B10534
:1020D00061F427FD0AC0E114F1040105110529F09E
:1020E000205C3F4F4F4F5F4F20782D873E874F87B3
:1020F000588BBE01675F7F4FCB010E942D126896FF
:10210000EAE00C943D14A8E1B0E0E9E8F0E10C94B9
:10211000251469837A838B839C832D833E834F832D
:10212000588789E0E82EF12CEC0EFD1ECE010196B9
:10213000B7010E9402138E010F5E1F4FCE0105965C
:10214000B8010E9402138985823040F0898982306B
:1021500028F0C701B8010E947A1301C08FEF68967A
:10216000E6E00C944114A8E0B0E0E9EBF0E10C9457
:1021700022149B01AC0183E08983DA01C90188271D
:10218000B7FD83959927AA27BB27B82E21153105BE
:102190004105510519F482E089833AC08823A9F0EA
:1021A000203080E0380780E0480780E8580729F4AD
:1021B00060E070E080E09FEC30C0EE24FF248701F7
:1021C000E21AF30A040B150B02C079018A018EE1B1
:1021D000C82ED12CDC82CB82ED82FE820F83188741
:1021E000C801B7010E94DE1101971816190684F480
:1021F000082E04C0EE0CFF1C001F111F0A94D2F71A
:10220000ED82FE820F831887C81AD90ADC82CB823E
:10221000BA82CE0101960E942D122896E9E00C9414
:102220003E14ACE0B0E0E7E1F1E10C9429146983DD
:102230007A838B839C83CE010196BE016B5F7F4FB7
:102240000E9402138D81823061F1823050F184301E
:1022500021F48E81882351F12EC02F81388537FDDE
:1022600020C06E812F3131051CF06623F9F023C0A8
:102270008EE190E0821B930B29853A854B855C8526
:1022800004C056954795379527958A95D2F76623CA
:10229000B1F050954095309521953F4F4F4F5F4F8E
:1022A0000EC020E030E040E050E009C02FEF3FEFEB
:1022B0004FEF5FE704C020E030E040E050E8B901B4
:1022C000CA012C96E2E00C944514A8E0B0E0EBE6DD
:1022D000F1E10C9421147B018C01611571058105DC
:1022E000910519F482E0898360C083E089838EE1DF
:1022F000C82ED12CDC82CB82ED82FE820F83188720
:10230000C801B7010E94DE11FC013197F7FF3BC005
:10231000222733272E1B3F0B57016801022E04C0D2
:10232000D694C794B794A7940A94D2F740E050E0AB
:1023300060E070E081E090E0A0E0B0E004C0880FD1
:10234000991FAA1FBB1F2A95D2F70197A109B109AE
:102350008E219F21A023B1230097A105B10521F073
:1023600041E050E060E070E04A295B296C297D295A
:102370004D835E836F8378878EE190E08E1B9F0B89
:102380009C838B8312C0309781F00E2E04C0EE0C1C
:10239000FF1C001F111F0A94D2F7ED82FE820F83EB
:1023A0001887CE1ADF0ADC82CB821A82CE01019610
:1023B0000E942D122896EAE00C943D14EF92FF92B1
:1023C0000F931F937B018C0180E0E81680E0F806F4
:1023D00081E0080780E0180788F48FEFE816F10421
:1023E0000105110531F028F088E090E0A0E0B0E0B0
:1023F00017C080E090E0A0E0B0E012C080E0E816F6
:1024000080E0F80680E0080781E0180728F088E1FE
:1024100090E0A0E0B0E004C080E190E0A0E0B0E097
:1024200020E230E040E050E0281B390B4A0B5B0B08
:1024300004C016950795F794E7948A95D2F7F701AB
:10244000E45DFE4F8081281B310941095109C90112
:102450001F910F91FF90EF900895DF92EF92FF92FE
:102460000F931F93FC01E480F58006811781D180D2
:102470008081823048F480E090E0A0E1B0E0E82A7A
:10248000F92A0A2B1B2BA5C0843009F49FC0823087
:1024900021F4EE24FF24870105C0E114F1040105B5
:1024A000110519F4E0E0F0E096C0628173819FEFBE
:1024B000623879070CF05BC022E83FEF261B370B30
:1024C0002A3131052CF020E030E040E050E02AC015
:1024D000B801A701022E04C07695679557954795D8
:1024E0000A94D2F781E090E0A0E0B0E004C0880F49
:1024F000991FAA1FBB1F2A95D2F70197A109B109FD
:102500008E219F21A023B1230097A105B10521F0C1
:1025100081E090E0A0E0B0E09A01AB01282B392BDC
:102520004A2B5B2BDA01C9018F779070A070B070D5
:1025300080349105A105B10539F427FF09C0205C5D
:102540003F4F4F4F5F4F04C0215C3F4F4F4F5F4F96
:10255000E0E0F0E02030A0E03A07A0E04A07A0E485
:102560005A0710F0E1E0F0E079018A0127C06038F5
:10257000710564F5FB01E158FF4FD801C7018F7762
:102580009070A070B07080349105A105B10539F448
:10259000E7FE0DC080E490E0A0E0B0E004C08FE36F
:1025A00090E0A0E0B0E0E80EF91E0A1F1B1F17FF25
:1025B00005C016950795F794E794319687E0169530
:1025C0000795F794E7948A95D1F705C0EE24FF2488
:1025D0008701EFEFF0E06E2F679566276795902FE4
:1025E0009F77D794DD24D7948E2F8695492F462B3D
:1025F000582F5D29B701CA011F910F91FF90EF90ED
:10260000DF900895FC01DB01408151812281622F1E
:102610006F7770E0221F2227221F9381892F880F56
:10262000822B282F30E0991F9927991F11969C9390
:10263000119721153105A9F5411551056105710560
:1026400011F482E037C082E89FEF13969C938E933B
:1026500012979A01AB0167E0220F331F441F551FE9
:102660006A95D1F783E08C930DC0220F331F441F6E
:10267000551F12968D919C911397019713969C93D9
:102680008E931297203080E0380780E0480780E47E
:10269000580758F314962D933D934D935C931797D9
:1026A00008952F3F310579F44115510561057105F4
:1026B00019F484E08C93089564FF03C081E08C9347
:1026C00012C01C9210C02F57304013963C932E938B
:1026D000129783E08C9387E0440F551F661F771F86
:1026E0008A95D1F7706414964D935D936D937C93A6
:1026F000179708951F93DC01FB019C91923008F419
:1027000047C08081823008F443C0943051F4119660
:102710001C91843099F58181682F70E0611B7109EB
:102720003FC0843021F0923031F48230B9F18181A0
:10273000882389F12DC011961C9111978230F1F0F8
:1027400081811817D9F412962D913C9113978281AB
:1027500093818217930794F028173907BCF01496D9
:102760008D919D910D90BC91A02D24813581468144
:102770005781281739074A075B0718F4112341F0DE
:102780000AC082179307A407B50740F4112319F074
:1027900061E070E005C06FEF7FEF02C060E070E0C5
:1027A000CB011F910895629FD001739FF001829F1A
:1027B000E00DF11D649FE00DF11D929FF00D839FD0
:1027C000F00D749FF00D659FF00D9927729FB00D6D
:1027D000E11DF91F639FB00DE11DF91FBD01CF0180
:1027E0001124089597FB092E07260AD077FD04D0FF
:1027F0000CD006D000201AF4709561957F4F089593
:10280000F6F7909581959F4F0895AA1BBB1B51E148
:1028100007C0AA1FBB1FA617B70710F0A61BB70B50
:10282000881F991F5A95A9F780959095BC01CD01F5
:1028300008952F923F924F925F926F927F928F9264
:102840009F92AF92BF92CF92DF92EF92FF920F933F
:102850001F93CF93DF93CDB7DEB7CA1BDB0B0FB649
:10286000F894DEBF0FBECDBF09942A883988488806
:102870005F846E847D848C849B84AA84B984C8849C
:10288000DF80EE80FD800C811B81AA81B981CE0F93
:10289000D11D0FB6F894DEBF0FBECDBFED01089578
:1028A000A0E0B0E0E6E5F4E10C942114EC01A8808E
:1028B000B980CA80DB80A114B104C104D10441F401
:1028C00084E2A82E89EDB82E8BE5C82E87E0D82E9D
:1028D000C601B5012DE133EF41E050E00E945917E8
:1028E00027EA31E440E050E00E94D3137B018C01E1
:1028F000C601B5012DE133EF41E050E00E945917C8
:10290000CA01B9012CEE34EF4FEF5FEF0E94D313F1
:102910006E0D7F1D801F911F97FF04C06150704096
:1029200080409048688379838A839B839B013F77AB
:10293000C901CDB7DEB7EAE00C943D140E945014F3
:1029400008958CE292E00E9450140895A0E0B0E057
:1029500080932C0290932D02A0932E02B0932F020D
:102960000895A0E0B0E0E7EBF4E10C942914FE0137
:102970003596619171918091940290919502AF0189
:102980000E94C6142096E2E00C944514ABE0B0E03F
:10299000ECECF4E10C9419143C012B015A01FC01FC
:1029A00017821682838181FD03C06FEF7FEFC6C15E
:1029B0009AE0892E1E010894211C311CF301238109
:1029C000F20123FD859123FF81912F01882309F4D2
:1029D000B2C1853239F423FD859123FF81912F0106
:1029E000853229F490E0B3010E94CF16E7CF982FEB
:1029F000FF24EE249924FFE1FF15D0F09B3269F00B
:102A00009C3228F4903259F0933291F40EC09D32EA
:102A100049F0903369F441E024C052E0F52A84E0A3
:102A2000F82A28C098E0F92A25C0E0E1FE2A22C051
:102A3000F7FC29C0892F80538A3070F4F6FE05C058
:102A4000989C902C1124980E15C0E89CE02C112421
:102A5000E80EF0E2FF2A0EC09E3229F4F6FC6BC1AC
:102A600040E4F42A07C09C3619F450E8F52A02C065
:102A7000983649F4F20123FD959123FF91912F019E
:102A8000992309F0B8CF892F8554833018F08052EC
:102A9000833038F444E050E0A40EB51E5FE3598360
:102AA0000FC0933631F0933779F0933509F056C063
:102AB00020C0F5018081898342E050E0A40EB51E5C
:102AC000610101E010E012C0F501C080D180F6FC88
:102AD00003C06FEF7FEF02C0692D70E042E050E06D
:102AE000A40EB51EC6010E94C4168C015FE7F52234
:102AF00014C0F501C080D180F6FC03C06FEF7FEFFA
:102B000002C0692D70E042E050E0A40EB51EC6017F
:102B10000E94B9168C0150E8F52AF3FE07C01AC0CE
:102B200080E290E0B3010E94CF16EA948E2D90E0EF
:102B300008171907A8F30EC0F601F7FC8591F7FEF8
:102B400081916F0190E0B3010E94CF16E110EA94E9
:102B5000015010400115110579F7EAC0943611F0C3
:102B6000993669F5F7FE08C0F5012081318142816F
:102B7000538184E090E00AC0F501808191819C013D
:102B8000442737FD4095542F82E090E0A80EB91EEF
:102B90009FE6F92257FF09C0509540953095219541
:102BA0003F4F4F4F5F4FE0E8FE2ACA01B901A10134
:102BB0002AE030E00E94FB16D82ED21840C095378C
:102BC00029F41F2D1F7E2AE030E01DC01F2D197F24
:102BD0009F3661F0903720F4983509F0ACC00FC0F3
:102BE000903739F0983709F0A6C004C028E030E0EB
:102BF0000AC0106114FD146020E130E004C014FD2F
:102C0000166020E132E017FF08C0F5016081718194
:102C10008281938144E050E008C0F5018081918178
:102C2000BC0180E090E042E050E0A40EB51EA1019E
:102C30000E94FB16D82ED2188FE7F82EF122F6FE4E
:102C40000BC05EEFF522D91438F4F4FE07C0F2FC95
:102C500005C08FEEF82202C01D2D01C0192DF4FE13
:102C60000DC0FE01ED0DF11D8081803319F499EE48
:102C7000F92208C01F5FF2FE05C003C08F2D8678C1
:102C800009F01F5F0F2DF3FC14C0F0FE0FC01E15DE
:102C900010F09D2C0BC09D2C9E0C911A1E2D06C071
:102CA00080E290E0B3010E94CF161F5F1E15C0F3B3
:102CB00004C01E1510F4E11A01C0EE2404FF0FC079
:102CC00080E390E0B3010E94CF1602FF1DC001FD1A
:102CD00003C088E790E00EC088E590E00BC0802F2D
:102CE000867891F001FF02C08BE201C080E2F7FC20
:102CF0008DE290E0B3010E94CF1606C080E390E021
:102D0000B3010E94CF169A94D914C0F3DA94F1015A
:102D1000ED0DF11D808190E0B3010E94CF16DD2002
:102D2000A9F706C080E290E0B3010E94CF16EA94B2
:102D3000EE20C1F743CEF30166817781CB012B965C
:102D4000E2E10C943514F999FECF92BD81BDF89A59
:102D5000992780B50895262FF999FECF1FBA92BD05
:102D600081BD20BD0FB6F894FA9AF99A0FBE01966C
:102D70000895FC010590615070400110D8F78095CE
:102D800090958E0F9F1F0895FC0161507040019037
:102D90000110D8F7809590958E0F9F1F08950F937F
:102DA0001F93CF93DF938C01EB018B8181FF1BC0BD
:102DB00082FF0DC02E813F818C819D8128173907AC
:102DC00064F4E881F9810193F983E88306C0E8851A
:102DD000F985802F0995892B31F48E819F81019689
:102DE0009F838E8302C00FEF1FEFC801DF91CF9149
:102DF0001F910F910895FA01AA27283051F120312F
:102E000081F1E8946F936E7F6E5F7F4F8F4F9F4F7E
:102E1000AF4FB1E03ED0B4E03CD0670F781F891FC0
:102E20009A1FA11D680F791F8A1F911DA11D6A0F8E
:102E3000711D811D911DA11D20D009F468943F9141
:102E40002AE0269F11243019305D3193DEF6CF0140
:102E50000895462F4770405D4193B3E00FD0C9F706
:102E6000F6CF462F4F70405D4A3318F0495D31FD73
:102E70004052419302D0A9F7EACFB4E0A6959795C6
:102E8000879577956795BA95C9F70097610571059C
:102E900008959B01AC010A2E0694579547953795E6
:102EA0002795BA95C9F7620F731F841F951FA01D40
:102EB000089597FB092E05260ED057FD04D014D097
:102EC0000AD0001C38F450954095309521953F4F1D
:102ED0004F4F5F4F0895F6F79095809570956195E7
:102EE0007F4F8F4F9F4F0895A1E21A2EAA1BBB1B45
:102EF000FD010DC0AA1FBB1FEE1FFF1FA217B307C6
:102F0000E407F50720F0A21BB30BE40BF50B661FDB
:102F1000771F881F991F1A9469F76095709580959F
:102F200090959B01AC01BD01CF010895F894FFCFAE
:102F300048656C6C6F20576F726C64210000000054
:102F400002000000005C0000000000B400B500B802
:102F5000007E02AA00000000000000000001020242
:102F60000303030304040404040404040505050521
:102F700005050505050505050505050506060606FD
:102F800006060606060606060606060606060606E1
:102F900006060606060606060606060607070707CD
:102FA00007070707070707070707070707070707B1
:102FB00007070707070707070707070707070707A1
:102FC0000707070707070707070707070707070791
:102FD000070707070707070707070707080808087D
:102FE0000808080808080808080808080808080861
:102FF0000808080808080808080808080808080851
:103000000808080808080808080808080808080840
:103010000808080808080808080808080808080830
:103020000808080808080808080808080808080820
:103030000808080808080808080808080808080810
:103040000808080808080808080808080808080800
:10305000080808080808080808080808010000000F
:00000001FF
