:100000000C9434000C9446000C9446000C9446006A
:100010000C9446000C9446000C9446000C94460048
:100020000C9446000C9446000C9446000C94460038
:100030000C9446000C9446000C9446000C94460028
:100040000C9446000C9446000C9448000C94460016
:100050000C9446000C9446000C9446000C94460008
:100060000C9446000C94460011241FBECFEFD8E03C
:10007000DEBFCDBF12E0A0E0B1E001C01D92A03212
:10008000B107E1F70E94B0000C943B070C9400000C
:100090001F920F920FB60F9211242F933F934F93FD
:1000A0005F938F939F93AF93BF93EF93FF93809151
:1000B000C60020910001E22FF0E0EB5FFE4F90813F
:1000C00030910101808338273927309301012F5F58
:1000D00020930001243818F01092000120E0E22F54
:1000E000F0E0DF01AB5FBE4F8C91853579F0FF9179
:1000F000EF91BF91AF919F918F915F914F913F9100
:100100002F910F900FBE0F901F901895332379F702
:1001100044E850E04E1B5F0B01F1E8E9F1E09A0181
:100120002E0F3F1F8D918193E217F307D9F74438C3
:10013000510558F4A5E0B1E0F9019A018D91819340
:100140002F5F3F4F24383105C8F381E080930201CF
:100150008091990180939701CACF28E931E0EACFD5
:10016000EF92FF921F93CF93DF93F894219A259AF1
:100170002D98299880B7806880BF8CE090E090939C
:10018000C5008093C4008091C0008D7F8093C00023
:100190008091C20086608093C2008091C10088690E
:1001A0008093C100789482E0809303018BE8E82E6D
:1001B00081E0F82EF0928A01E0928901F0921F020C
:1001C000E0921E02F0921D02E0921C0265E048ECF3
:1001D00050E02D9A20E030E0CA010197F1F72F5F3F
:1001E0003F4F87E0203D3807B9F72D9820E030E0F9
:1001F000CA010197F1F72F5F3F4FE7E0203D3E072F
:10020000B9F7615031F7809102018823E1F3109230
:10021000020180919701833009F47AC4843008F098
:1002200070C0813009F462C4823069F7E0911C0229
:10023000F0911D0280919A018083E0911C02F0915F
:100240001D0280919B018183E0911C02F0911D02AF
:1002500080919C018283E0911C02F0911D028091AB
:100260009D018383E0911C02F0911D0280919E010B
:100270008483E0911C02F0911D0280919F0185838F
:10028000E0911C02F0911D028091A0018683E09113
:100290001C02F0911D028091A1018783E0911C0254
:1002A000F0911D028091A2018087E0911C02F091E3
:1002B0001D028091A30181878BE891E00E940006D6
:1002C000909396018093950180910201882309F013
:1002D0009ACFC0E7D7E18BE891E00E94B9062D9A4A
:1002E000CE010197F1F72D98CE010197F1F780919A
:1002F0000201882381F380910201882309F483CFCE
:1003000086CF853009F4A8C0853008F464C08630F3
:1003100009F079CFE0911C02F0911D0280919A01C1
:100320008083E0911C02F0911D0280919B018183EA
:10033000E0911C02F0911D0280919C018283E0916A
:100340001C02F0911D0280919D018383E0911C02AB
:10035000F0911D0280919E018483E0911C02F09136
:100360001D0280919F018583E0911C02F0911D0286
:100370008091A0018683E0911C02F0911D02809182
:10038000A1018783E0911C02F0911D028091A201DE
:100390008087E0911C02F0911D028091A30181876A
:1003A0008BE891E00E94000690939601809395015E
:1003B0008BE891E00E94B9062D9A80E797E1FC0155
:1003C0003197F1F72D980197F1F780910201882379
:1003D00009F419CF1CCF81E880939401E091890141
:1003E000F0918A0180919A0180831086F894CBE97C
:1003F000D1E010E0809102018823F1F4E0918901BD
:10040000F0918A01812F869581833296DE0186E004
:100410000D9001928150E1F78BE891E00E94000677
:1004200090939601809395018BE891E00E94B90624
:100430001A5F26961438F1F678942D9A80E29EE49D
:10044000FC013197F1F72D980197F1F780910201A6
:10045000882309F4D8CEDBCE8AE0F70111928A9581
:10046000E9F781E080939401F89420911E02309185
:100470001F02C901DC01EAE9F1E088E001900D9278
:100480008150E1F7E0911E02F0911F02808191817D
:10049000892B81F482819381892B61F484819581F8
:1004A000892B41F48681882329F487819085892BC3
:1004B00009F41AC38BE891E00E940006909396011C
:1004C000809395018BE891E00E94B90685E88A95B2
:1004D000F1F780911E0290911F029C01D901E2EA7E
:1004E000F1E088E001900D928150E1F7E0911E0269
:1004F000F0911F0280819181892B81F48281938107
:10050000892B61F484819581892B41F4868188232C
:1005100029F487819085892B09F4E6C28BE891E064
:100520000E94000690939601809395018BE891E0DC
:100530000E94B90685E88A95F1F780911E02909194
:100540001F029C01D901EAEAF1E088E001900D92D6
:100550008150E1F7E0911E02F0911F0280819181AC
:10056000892B81F482819381892B61F48481958127
:10057000892B41F48681882329F487819085892BF2
:1005800009F4B2C28BE891E00E94000690939601B4
:10059000809395018BE891E00E94B90685E88A95E1
:1005A000F1F780911E0290911F029C01D901E2EBAC
:1005B000F1E088E001900D928150E1F7E0911E0298
:1005C000F0911F0280819181892B81F48281938136
:1005D000892B61F484819581892B41F4868188235C
:1005E00029F487819085892B09F47EC28BE891E0FC
:1005F0000E94000690939601809395018BE891E00C
:100600000E94B90685E88A95F1F780911E029091C3
:100610001F029C01D901EAEBF1E088E001900D9204
:100620008150E1F7E0911E02F0911F0280819181DB
:10063000892B81F482819381892B61F48481958156
:10064000892B41F48681882329F487819085892B21
:1006500009F44AC28BE891E00E940006909396014B
:10066000809395018BE891E00E94B90685E88A9510
:10067000F1F780911E0290911F029C01D901E2ECDA
:10068000F1E088E001900D928150E1F7E0911E02C7
:10069000F0911F0280819181892B81F48281938165
:1006A000892B61F484819581892B41F4868188238B
:1006B00029F487819085892B09F416C28BE891E093
:1006C0000E94000690939601809395018BE891E03B
:1006D0000E94B90685E88A95F1F780911E029091F3
:1006E0001F029C01D901EAECF1E088E001900D9233
:1006F0008150E1F7E0911E02F0911F02808191810B
:10070000892B81F482819381892B61F48481958185
:10071000892B41F48681882329F487819085892B50
:1007200009F4E2C18BE891E00E94000690939601E3
:10073000809395018BE891E00E94B90685E88A953F
:10074000F1F780911E0290911F029C01D901E2ED08
:10075000F1E088E001900D928150E1F7E0911E02F6
:10076000F0911F0280819181892B81F48281938194
:10077000892B61F484819581892B41F486818823BA
:1007800029F487819085892B09F4AEC18BE891E02B
:100790000E94000690939601809395018BE891E06A
:1007A0000E94B90685E88A95F1F780911E02909122
:1007B0001F029C01D901EAEDF1E088E001900D9261
:1007C0008150E1F7E0911E02F0911F02808191813A
:1007D000892B81F482819381892B61F484819581B5
:1007E000892B41F48681882329F487819085892B80
:1007F00009F47AC18BE891E00E940006909396017B
:10080000809395018BE891E00E94B90685E88A956E
:10081000F1F780911E0290911F029C01D901E2EE36
:10082000F1E088E001900D928150E1F7E0911E0225
:10083000F0911F0280819181892B81F482819381C3
:10084000892B61F484819581892B41F486818823E9
:1008500029F487819085892B09F446C18BE891E0C2
:100860000E94000690939601809395018BE891E099
:100870000E94B90685E88A95F1F780911E02909151
:100880001F029C01D901EAEEF1E088E001900D928F
:100890008150E1F7E0911E02F0911F028081918169
:1008A000892B81F482819381892B61F484819581E4
:1008B000892B41F48681882329F487819085892BAF
:1008C00009F412C18BE891E00E9400069093960112
:1008D000809395018BE891E00E94B90685E88A959E
:1008E000F1F780911E0290911F029C01D901E2EF65
:1008F000F1E088E001900D928150E1F7E0911E0255
:10090000F0911F0280819181892B81F482819381F2
:10091000892B61F484819581892B41F48681882318
:1009200029F487819085892B09F4DEC08BE891E05A
:100930000E94000690939601809395018BE891E0C8
:100940000E94B90685E88A95F1F780911E02909180
:100950001F029C01D901EAEFF1E088E001900D92BD
:100960008150E1F7E0911E02F0911F028081918198
:10097000892B81F482819381892B61F48481958113
:10098000892B41F48681882329F487819085892BDE
:1009900009F4AAC08BE891E00E94000690939601AA
:1009A000809395018BE891E00E94B90685E88A95CD
:1009B000F1F780911E0290911F029C01D901E2E0A3
:1009C000F2E088E001900D928150E1F7E0911E0283
:1009D000F0911F0280819181892B81F48281938122
:1009E000892B61F484819581892B41F48681882348
:1009F00029F487819085892B09F476C08BE891E0F2
:100A00000E94000690939601809395018BE891E0F7
:100A10000E94B90685E88A95F1F780911E029091AF
:100A20001F029C01D901EAE0F2E088E001900D92FA
:100A30008150E1F7E0911E02F0911F0280819181C7
:100A4000892B81F482819381892B61F48481958142
:100A5000892B41F48681882329F487819085892B0D
:100A600009F442C08BE891E00E9400069093960141
:100A7000809395018BE891E00E94B90685E88A95FC
:100A8000F1F780911E0290911F029C01D901E2E1D1
:100A9000F2E088E001900D928150E1F7E0911E02B2
:100AA000F0911F0280819181892B79F48281938159
:100AB000892B59F484819581892B39F48681882387
:100AC00021F487819085892B79F08BE891E00E9451
:100AD000000690939601809395018BE891E00E9427
:100AE000B90685E88A95F1F77894A7CC90E08091D3
:100AF0000401882309F491E090930401992309F4F7
:100B000078C02D9A80910201882309F47CCB7FCB99
:100B1000E0911C02F0911D0280919A018083E09186
:100B20001C02F0911D0280919B018183E0911C02C7
:100B3000F0911D0280919C018283E0911C02F09152
:100B40001D0280919D018383E0911C02F0911D02A2
:100B500080919E018483E0911C02F0911D0280919E
:100B60009F018583E0911C02F0911D028091A001FC
:100B70008683E0911C02F0911D028091A101878380
:100B8000E0911C02F0911D028091A2018087E0910A
:100B90001C02F0911D028091A3018187E0911C024B
:100BA000F0911D028091A4018287E0911C02F091D6
:100BB0001D028091A501838780910201882309F09D
:100BC00022CBC0E7D7E18BE891E00E94B9062D9ACD
:100BD000CE010197F1F72D98CE010197F1F78091A1
:100BE0000201882381F380910201882309F40BCB51
:100BF0000ECB2D9880910201882309F404CB07CBFA
:100C0000FC0180812FEF3FEF2827022E2295207FC5
:100C10002025032E322F22952F700226269532276B
:100C20002327220F220F220F202581812827022E21
:100C30002295207F2025032E322F22952F70022609
:100C4000269532272327220F220F220F202582816B
:100C50002827022E2295207F2025032E322F229531
:100C60002F700226269532272327220F220F220FCC
:100C7000202583812827022E2295207F2025032EE0
:100C8000322F22952F700226269532272327220FF6
:100C9000220F220F202584812827022E2295207FD3
:100CA0002025032E322F22952F70022626953227DB
:100CB0002327220F220F220F202585812827022E8D
:100CC0002295207F2025032E322F22952F70022679
:100CD000269532272327220F220F220F20258681D7
:100CE0002827022E2295207F2025032E322F2295A1
:100CF0002F700226269532272327220F220F220F3C
:100D0000202587812827022E2295207F2025032E4B
:100D1000322F22952F700226269532272327220F65
:100D2000220F220F202580852827022E2295207F42
:100D30002025032E322F22952F700226269532274A
:100D40002327220F220F220F202581852827022EFC
:100D50002295207F2025032E322F22952F700226E8
:100D6000269532272327220F220F220F2025C90183
:100D700008950FB6A4B1209103012A2B24B921E0D4
:100D800030910301203029F0000025B1232B25B933
:100D900004C000000000000000C0000000000000CF
:100DA000309525B1232325B92EEA2A95F1F72BEEAC
:100DB00030B735FF0AC0A4B930910301309525B191
:100DC000232325B90FBE80E0089500002A9581F7FE
:100DD00021E030910301203029F0000025B1232BC0
:100DE00025B904C000000000000000C000000000A1
:100DF0000000309525B1232325B9000024E52A956C
:100E0000F1F7FC018CE0619170E0660F771F616083
:100E100072609AE041E050E09A0126233723232BA9
:100E200030910301203029F0000025B1232B25B992
:100E300004C000000000000000C00000000000002E
:100E4000309525B1232325B9000021E52A95F1F736
:100E5000440F551F9A9501F78A95A9F620B720618E
:100E600020BFA4B930910301309525B1232325B9C2
:0A0E70000FBE81E00895F894FFCF53
:00000001FF
