:100000000C9434000C945A000C945A000C945A002E
:100010000C945A000C945A000C940D010C945A0044
:100020000C945A000C945A000C945A000C94380505
:100030000C945A000C945A000C9484070C945A00A7
:100040000C945A000C945A000C945A000C945A00C8
:100050000C945A000C945A000C945A000C945A05B3
:100060000C945A000C945A0011241FBECFEFD8E014
:10007000DEBFCDBF14BE88E10FB6F8948093600058
:10008000109260000FBE12E0A0E0B1E0E4EBFAE2F3
:1000900002C005900D92A631B107D9F712E0A6E192
:1000A000B2E001C01D92A838B107E1F70E946400D8
:1000B0000C9458150C9400008BE192E0089581E0B7
:1000C00080932902089508950E94FC078CE590E032
:1000D00090930301809302018FE590E090930501D6
:1000E0008093040182EB90E09093010180930001E2
:1000F00083E690E06AEB70E00E94A20A80E090E064
:10010000089580E10E9414050E94300180918502CB
:10011000609186020E942B0180ED97E00E942101F0
:100120000E9430018091870260E00E942B0184EFE1
:1001300091E00E9421010E94300180E060917302F1
:100140000E942B0184EF91E00E94210108951092FA
:1001500024028BE192E00E941F0C90932602809370
:1001600025020895CB010E943C0280932702109241
:1001700028020895809116028130D1F180912702E2
:1001800090912802889734F180E10E9414050E9422
:10019000300180918502609186020E942B0180EDE2
:1001A00097E00E9421010E9430018091870260E067
:1001B0000E942B0184EF91E00E9421010E943001F6
:1001C00080E0609173020E942B0184EF91E00E9415
:1001D00021010895109224028BE192E00E941F0CED
:1001E000909326028093250281E080931602089561
:1001F00080912902813011F6109229020E94140583
:1002000084E690E00E94210180E00E941405089598
:10021000089580E090E0089508951F920F920FB620
:100220000F9211248F9388E10FB6F89480936000A9
:10023000109260000FBE8F910F900FBE0F901F9015
:100240001895009739F020ED37E0F9013197F1F773
:100250000197D9F708958093B3006093B40008958F
:100260008FEF8093B3008093B40080ED97E0FC01A2
:100270003197F1F7FC013197F1F7FC013197F1F774
:10028000FC013197F1F7FC013197F1F7FC0131974F
:10029000F1F7FC013197F1F7FC013197F1F7FC011F
:1002A0003197F1F7FC013197F1F7FC013197F1F744
:1002B000FC013197F1F7FC013197F1F7FC0131971F
:1002C000F1F70197F1F70895809151028823F9F42D
:1002D000F89487E080937C0083E880937A00809193
:1002E0007A00806480937A0080917A0086FDFCCF4A
:1002F000209178003091790010927C0083EA8093FD
:100300007A0081E080937B007894C90108952FEFF3
:100310003FEFC9010895809151028823F9F4F894C0
:1003200088EC80937C0087E880937A0080917A0043
:10033000806480937A0080917A0086FDFCCF2091C2
:1003400078003091790010927C0083EA80937A00E3
:1003500081E080937B007894C90108952FEF3FEFEF
:10036000C9010895CF93DF93B0E060E070E0F3EA55
:10037000A1E056E0E3E8C1E0D0E020E030E0F8940E
:1003800050937C00E0937A0080917A00806480939F
:100390007A0080917A0086FDFCCF80917800909160
:1003A0007900482F417080917A00806480937A00B0
:1003B00080917A0086FDFCCF809178009091790041
:1003C00010927C00F0937A00A0937B007894817067
:1003D000481729F42F5F3F4F2038310581F6442319
:1003E00041F0CE01062E02C0880F991F0A94E2F751
:1003F000B82B6F5F7F4F6830710509F0BECF8B2F30
:10040000DF91CF91089580910801982F990F990F4E
:10041000990F982720911902822F86958695892712
:100420009295969597708927809308012F5F209366
:10043000190208958093080108958091510288233C
:10044000B9F4F89486E080937C0083E880937A0086
:1004500080917A00806480937A0080917A0086FD92
:10046000FCCF20917800309179007894C9010895EB
:100470002FEF3FEFC90108952F923F924F925F9265
:100480006F927F928F929F92AF92BF92CF92DF92A4
:10049000EF92FF920F931F93DF93CF9300D000D082
:1004A0000F92CDB7DEB71C01DC0112964D905C9027
:1004B0001397B4E84B16B3E05B060CF49DC0EFEF66
:1004C000ED83BDEB4B16B2E05B06D4F48D818F5DFE
:1004D0000F900F900F900F900F90CF91DF911F9181
:1004E0000F91FF90EF90DF90CF90BF90AF909F90D3
:1004F0008F907F906F905F904F903F902F900895D6
:10050000F101008111818091520290915302801774
:10051000910708F443C1E0905402F0905502E016B0
:10052000F10608F415C2E0905602F0905702E0166A
:10053000F10608F416C2E0905802F0905902E01655
:10054000F10608F417C2E0905A02F0905B02E01640
:10055000F10608F418C2E0905C02F0905D02E0162B
:10056000F10608F46EC1E0905E02F0905F02E016C2
:10057000F10608F411C2E0906002F0906102E0160A
:10058000F10608F412C2E0906202F0906302E016F5
:10059000F10608F413C2E0906402F0906502E016E0
:1005A000F10608F414C2E0906602F0906702E016CB
:1005B000F10608F415C2E0906802F0906902E016B6
:1005C000F10608F41AC2E0906A02F0906B02E0169D
:1005D000F10608F41BC2E0906C02F0906D02E01688
:1005E000F10608F41CC28AE5382E2D812F3F09F050
:1005F000DAC0832D8F5D6CCF80912B0290912C02FD
:100600008415950508F4C8C0E0902D02F0902E02E4
:10061000E414F50408F4A1C1E0902F02F090300238
:10062000E414F50408F4A2C1E0903102F090320223
:10063000E414F50408F4A3C1E0903302F09034020E
:10064000E414F50408F4A4C1E0903502F0903602F9
:10065000E414F50408F460C1E0903702F090380229
:10066000E414F50408F49DC1E0903902F0903A02D8
:10067000E414F50408F49EC1E0903B02F0903C02C3
:10068000E414F50408F49FC1E0903D02F0903E02AE
:10069000E414F50408F4A0C1E0903F02F090400299
:1006A000E414F50408F4A1C1E0904102F090420284
:1006B000E414F50408F49DC1E0904302F090440274
:1006C000E414F50408F49EC1E0904502F09046025F
:1006D000E414F50408F49FC10CE010E080E090E021
:1006E000A0EDB0E489839A83AB83BC83000F111F14
:1006F000055D1D4FD8018D919C91B701681B790B49
:1007000080E090E00E94B9119B01AC010E94040FAF
:100710003B014C01B201882777FD8095982F0E94FC
:1007200007115B016C01B70180E090E00E94B911F4
:100730007B018C01C401B30129813A814B815C8129
:100740000E94310F9B01AC01C801B7010E94D30E7A
:100750009B01AC01C601B5010E94D30E20E030E040
:1007600040E251E40E94310F0E9465117B018C012F
:10077000C401B3010E9465119B01AC01C701B9011D
:100780000E944614882777FD8095982F0E940711B4
:100790000E945B0D6D8395CE1D8293CE33242D81F7
:1007A0002F3F09F426CFB201882777FD8095982F37
:1007B0000E9407115B016C01AD816A2F70E080E03F
:1007C00090E00E94B9117B018C0160E070E081E64D
:1007D00094E4A60195010E94D30E9B01AC01C801CF
:1007E000B7010E94310F3B014C01632D70E080E0A6
:1007F00090E00E94B9117B018C01C601B50120E097
:1008000030E04FE254E40E94D30E9B01AC01C801DA
:10081000B7010E94310F9B01AC01C401B3010E94DA
:10082000040F20E030E048E453E40E942B1020E065
:1008300030E044E052E40E94040F0E945B0D862FDA
:1008400047CEA5E03A2EE5E0F0E0EE0FFF1FE05BBB
:10085000FD4F80819181B701681B790B80E090E0AA
:100860000E94B9119B01AC010E94040F3B014C0195
:10087000B801882777FD8095982F0E9407115B01AA
:100880006C01B70180E090E00E94B9117B018C01FE
:10089000632D70E080E090E00E94B91120E030E02C
:1008A00040E05FE30E94310F20E030E040E050E0A4
:1008B0000E94040FA40193010E94310F9B01AC011F
:1008C000C801B7010E94D30E9B01AC01C601B5015E
:1008D0000E94D30E20E030E040E251E40E94310F4C
:1008E0000E9465117B018C01C401B3010E94651156
:1008F0009B01AC01C701B9010E944614882777FD0E
:100900008095982F0E9407110E945B0D362EFFEFF5
:100910006F1709F044CFDACD85E090E065E08C01F7
:100920000150104070E080E090E00E94B91120E09A
:1009300030E040E05FE30E94310F20E030E040E033
:1009400050E00E94040F69837A838B839C83CECE10
:1009500033243394E1E0F0E078CF81E090E061E08F
:10096000DECF92E0392EE2E0F0E06FCF82E090E05F
:1009700062E0D5CF83E0382EE3E0F0E066CF83E09D
:1009800090E063E0CCCFB4E03B2EE4E0F0E05DCF5C
:1009900084E090E064E0C3CFF6E03F2EE6E0F0E0D4
:1009A00054CF86E090E066E0BACFE7E03E2EE7E085
:1009B000F0E04BCF87E090E067E0B1CF78E0372EF2
:1009C000E8E0F0E042CF88E090E068E0A8CF69E09E
:1009D000362EE9E0F0E039CF89E090E069E09FCF82
:1009E0005AE0352EEAE0F0E030CF8AE090E06AE0AD
:1009F00096CF8BE090E06BE092CF4BE0342EEBE0B3
:100A0000F0E023CF8CE090E06CE089CF3CE0332E27
:100A1000ECE0F0E01ACF8DE090E06DE080CF2DE0CB
:100A2000322EEDE0F0E011CF80FF11C0559A81FF2A
:100A300011C0549A82FF11C03B9A83FF11C03A9AA9
:100A400084FF11C03D9A85FD11C03C9808955598CA
:100A500081FDEFCF549882FDEFCF3B9883FDEFCF20
:100A60003A9884FDEFCF3D9885FFEFCF3C9A0895EB
:100A70001F920F920FB60F9211248F939F93109293
:100A80008100109285001092840091E090932A02D8
:100A900090936E021092510210927C0083EA809330
:100AA0007A0090937B009F918F910F900FBE0F90D3
:100AB0001F9018951F920F920FB60F9211240F934B
:100AC0001F932F933F934F935F936F937F938F93D6
:100AD0009F93AF93BF93EF93FF93609184007091C6
:100AE000850001E00093510280912A028823A9F138
:100AF000109285001092840000938100109282026F
:100B000010922A0280916E028823A1F080917A00CF
:100B100086FDFCCF809178009091790090934C02F3
:100B200080934B0291E090937C0083EA80937A005B
:100B300090937B00FF91EF91BF91AF919F918F9127
:100B40007F916F915F914F913F912F911F910F91E5
:100B50000F900FBE0F901F901895CB0187589040B3
:100B60008457994008F066C06658704080E090E075
:100B700024EF30E040E050E00E942714BC018827B9
:100B80009927683008F48DC000932A0280916E0284
:100B9000882309F063C080914802E0910601F0913A
:100BA0000701E80FF11D8091820280838091480245
:100BB0008F5F809348028C3009F0BCCF1092810087
:100BC000109285001092840000936E0210925102E0
:100BD00000917E0210917F0284E792E00E941F0C38
:100BE0000817190709F0A6CF90917D0297FF6BC0F7
:100BF000892F8858833030F0539823981092B4008E
:100C00001092B300963809F4D2C0973808F065C046
:100C1000933809F4D0C0943808F068C0903809F0CF
:100C200089CF80916E008D7F80936E0016BCE0E0CE
:100C3000F0E70995109281001092850010928400CF
:100C400000932A0200936E021092510210927C00CF
:100C500083EA80937A0000937B006CCF80917A00C6
:100C600086FDFCCF809178009091790090934A02A4
:100C70008093490210927C0083EA80937A0091E08D
:100C800090937B00809182028823C1F010928100B2
:100C9000109285001092840090936E02109251027F
:100CA00049CF81E090E002C0880F991F6A95E2F772
:100CB00020918202282B209382023CCF10926E0258
:100CC0001092480237CFE0910001F091010184E7D2
:100CD00092E069E472E009952DCF983809F46EC06E
:100CE000983870F482E080931A0224CF943809F483
:100CF00079C0953809F01ECF81E080931A021ACF8F
:100D0000993809F498C09A3809F014CF8091740288
:100D1000823009F4BEC0833008F074C0882309F023
:100D200064C080911A02863009F004CF80EB90E015
:100D3000609183020E940D156091840281EB90E026
:100D40000E940D1585E090E0609187020E940D15CC
:100D500089E090E0609173020E940D158CE090E0B4
:100D6000609185020E940D1584E190E060918602F9
:100D70000E940D15539823981092B4001092B3005E
:100D800081E080931A0280917402882309F4D2CE04
:100D900080911A02863009F4CDCE539A239A10928C
:100DA000B4001092B30086E080931A02C3CE85E0AF
:100DB00080931A02BFCEE0E0F0E0099580911A021C
:100DC000833009F4B7CE80911A02843009F4B2CE90
:100DD000539A239A1092B4001092B30083E0809348
:100DE0001A02A8CE10921A02A5CE813071F6809117
:100DF0007502909176029093840280938302109200
:100E00001702C6CF833009F45BC0843009F0BDCF30
:100E100080911702833009F44AC020917A029091A0
:100E200079021092180283E0809317029093850252
:100E300020938602ADCF80911A02863091F0539AAA
:100E4000239A1092B4001092B30080E00E9414051F
:100E500010921702809117028093180286E0809307
:100E60001A0281E090E00090740202C0880F991F7E
:100E70000A94E2F720918302309184028223932323
:100E8000892B19F41092170255CE81E08093170236
:100E900051CE80911702813009F190917702109222
:100EA000180281E0809317029093870271CF2091FE
:100EB0007A02809186022817C1F090917902B1CF11
:100EC000809117028230C9F0909178021092180236
:100ED00082E080931702909373025ACF9091770229
:100EE000809187029817D9F653CF9091790280911B
:100EF0008502981709F095CF4BCF90917802809199
:100F00007302981719F744CF1F920F920FB60F92E2
:100F100011242F933F934F935F936F937F938F93FE
:100F20009F93AF93BF93EF93FF9320916F02309104
:100F300070028091710290917202280F391F3093D4
:100F40007202209371028FEF90E090937002809371
:100F50006F028FEF87BD80914D0290914E02A0915C
:100F60004F02B09150020196A11DB11D80934D0218
:100F700090934E02A0934F02B09350028091510281
:100F8000882359F4809180029091810282179307FF
:100F900020F480911A02843089F0FF91EF91BF9183
:100FA000AF919F918F917F916F915F914F913F9101
:100FB0002F910F900FBE0F901F901895E091020196
:100FC000F09103010995009741F30E94D80C882302
:100FD00049F40E94F51490E09093700280936F02A0
:100FE00087BDDBCFE0910401F091050109951092D6
:100FF000720210927102D1CF0F931F93F89414B81C
:1010000017B81AB815B818B81BB8529A5A9A14BC1F
:1010100085E085BD8FEF87BD22E020936E001092A2
:101020008000109281008FE89BE09093890080936C
:10103000880020936F005398239881EA8093B00032
:101040002093B1001092B4001092B3008BE080BFE7
:1010500083E080937F0086E080937C0083E8809328
:101060007A0080917A00806480937A0080917A007F
:1010700086FDFCCF10927C0083EA80937A0081E0A9
:1010800080937B0081E090E00E9405158F3F11F076
:10109000809366001092510211E010932A0210937F
:1010A0006E02109248021092820280E990E00E9443
:1010B00005158093470280914702887311F01093C1
:1010C000470210927202109271028FEF90E090939B
:1010D000700280936F0210924D0210924E02109295
:1010E0004F021092500281E080931A0282E49FE046
:1010F000909381028093800280EB90E00E9405151E
:10110000082F81EB90E00E940515382F20E010E0B9
:10111000202B312B309384022093830285E090E0D2
:101120000E9405158093870289E090E00E940515D2
:10113000809373028CE090E00E94051580938502F5
:1011400084E190E00E9405158093860280E290E0A1
:101150000E940515182F81E290E00E940515312F9D
:1011600020E090E0282B392B309353022093520239
:1011700080E590E00E940515182F81E590E00E941F
:101180000515312F20E090E0282B392B30932C02CD
:1011900020932B0282E290E00E940515182F83E233
:1011A00090E00E940515312F20E090E0282B392B8C
:1011B000309355022093540282E590E00E94051579
:1011C000182F83E590E00E940515312F20E090E074
:1011D000282B392B30932E0220932D0284E290E0AD
:1011E0000E940515182F85E290E00E940515312F09
:1011F00020E090E0282B392B3093570220935602A1
:1012000084E590E00E940515182F85E590E00E9486
:101210000515312F20E090E0282B392B3093300238
:1012200020932F0286E290E00E940515182F87E296
:1012300090E00E940515312F20E090E0282B392BFB
:10124000309359022093580286E590E00E940515DC
:10125000182F87E590E00E940515312F20E090E0DF
:10126000282B392B309332022093310288E290E010
:101270000E940515182F89E290E00E940515312F74
:1012800020E090E0282B392B30935B0220935A0208
:1012900088E590E00E940515182F89E590E00E94EE
:1012A0000515312F20E090E0282B392B30933402A4
:1012B000209333028AE290E00E940515182F8BE2FA
:1012C00090E00E940515312F20E090E0282B392B6B
:1012D00030935D0220935C028AE590E00E94051540
:1012E000182F8BE590E00E940515312F20E090E04B
:1012F000282B392B30933602209335028CE290E074
:101300000E940515182F8DE290E00E940515312FDF
:1013100020E090E0282B392B30935F0220935E026F
:101320008CE590E00E940515182F8DE590E00E9455
:101330000515312F20E090E0282B392B309338020F
:10134000209337028EE290E00E940515182F8FE25D
:1013500090E00E940515312F20E090E0282B392BDA
:1013600030936102209360028EE590E00E940515A3
:10137000182F8FE590E00E940515312F20E090E0B6
:10138000282B392B30933A022093390280E390E0E6
:101390000E940515182F81E390E00E940515312F5A
:1013A00020E090E0282B392B3093630220936202D7
:1013B00080E690E00E940515182F81E690E00E94DB
:1013C0000515312F20E090E0282B392B30933C027B
:1013D00020933B0282E390E00E940515182F83E3DF
:1013E00090E00E940515312F20E090E0282B392B4A
:1013F000309365022093640282E690E00E94051516
:10140000182F83E690E00E940515312F20E090E030
:10141000282B392B30933E0220933D0284E390E049
:101420000E940515182F85E390E00E940515312FC5
:1014300020E090E0282B392B30936702209366023E
:1014400084E690E00E940515182F85E690E00E9442
:101450000515312F20E090E0282B392B30934002E6
:1014600020933F0286E390E00E940515182F87E342
:1014700090E00E940515312F20E090E0282B392BB9
:10148000309369022093680286E690E00E94051579
:10149000182F87E690E00E940515312F20E090E09C
:1014A000282B392B309342022093410288E390E0AD
:1014B0000E940515182F89E390E00E940515312F31
:1014C00020E090E0282B392B30936B0220936A02A6
:1014D00088E690E00E940515182F89E690E00E94AA
:1014E0000515312F20E090E0282B392B3093440252
:1014F000209343028AE390E00E940515182F8BE3A6
:1015000090E00E940515312F20E090E0282B392B28
:1015100030936D0220936C028AE690E00E940515DC
:10152000182F8BE690E00E940515312F20E090E007
:10153000282B392B309346022093450278941F9133
:101540000F9108952F923F924F925F926F927F92E8
:101550008F929F92AF92BF92CF92DF92EF92FF92C3
:101560000F931F93CF93DF936C018B01FF24A0EDAA
:10157000AA2EA7E0BA2EC8ECD0E0EE24EA94F0E35D
:101580008F2EF5E79F2EE6E07E2E73E8672E68E14A
:10159000462E512C59E2352E44E0242E80911A0219
:1015A000833079F18430B8F5813009F4CBC08230D2
:1015B00008F461C080915102882309F008C1F894B1
:1015C00070927C0060927A0080917A0080648093AF
:1015D0007A0080917A0086FDFCCF209178003091CE
:1015E0007900789442E02B3A34070CF4F7C0559810
:1015F00054983B9A3A9A3D983C9880911A028330CD
:1016000089F6FF2009F4E0C020921A02FF24F39427
:10161000F8010995C3CF853089F08530C8F386304D
:1016200009F0BCCF80911702882309F0A6C0109260
:10163000B3001092B40010921802B0CF489963C062
:10164000559A54983B983A983D983C98C501019713
:10165000F1F7559854983B983A983D983C9820E07B
:1016600030E0CE010197F1F72F5F3F4F87E0203D3B
:101670003807B9F793CFF89480B7877F80BF809100
:101680007A008F7780937A0014B817B81AB815B813
:1016900018B81BB80FB6F894A895409260000FBE1A
:1016A000309260008091600080648093600083B716
:1016B000817F846083BFF89483B7816083BF78940F
:1016C000889583B78E7F83BF789410925102529A87
:1016D0005A9A80917A00806880937A0088E592E037
:1016E0000197F1F780B7886180BF559A549A3B9A69
:1016F0003A9A3D9A3C9A80E29EE40197F1F78091F4
:101700005102882339F4559854983B983A983D985B
:101710003C9844CF559A549A3B983A983D983C98B7
:1017200020E030E0CE010197F1F72F5F3F4F43E01B
:10173000283E3407B9F7559854983B983A983D9805
:101740003C982CCF559854983B9A3A9A3D983C989F
:10175000C5010197F1F7559854983B983A983D98F0
:101760003C9820E030E0CE010197F1F72F5F3F4F2A
:1017700087E0203D3807B9F711CF9091170280918B
:101780001802981709F40ACF809117028093180263
:1017900080911702813069F1809117028230B9F18E
:1017A0001092B300E092B400E092B300E092B40073
:1017B000C4010197F1F78091850290918602809390
:1017C000B3009093B400EACEF60109951DCF559A67
:1017D000549A3B983A983D983C98E0CE82E029385C
:1017E00038071CF1559854983B983A983D9A3C9A82
:1017F000D5CEE092B3001092B400C4010197F1F786
:10180000809187028093B3001092B400C7CE1092EB
:10181000B300E092B400C4010197F1F78091730224
:101820001092B3008093B400B9CE275632407CF2B8
:10183000559A549A3B9A3A9A3D983C98AFCEFC01FF
:1018400080812FEF3FEF2827022E2295207F202531
:10185000032E322F22952F7002262695322723271A
:10186000220F220F220F202581812827022E229568
:10187000207F2025032E322F22952F7002262695B9
:1018800032272327220F220F220F2025828128278B
:10189000022E2295207F2025032E322F22952F7095
:1018A0000226269532272327220F220F220F2025DA
:1018B00083812827022E2295207F2025032E322F78
:1018C00022952F700226269532272327220F220FDA
:1018D000220F202584812827022E2295207F202573
:1018E000032E322F22952F7002262695322723278A
:1018F000220F220F220F202585812827022E2295D4
:10190000207F2025032E322F22952F700226269528
:1019100032272327220F220F220F202586812827F6
:10192000022E2295207F2025032E322F22952F7004
:101930000226269532272327220F220F220F202549
:1019400087812827022E2295207F2025032E322FE3
:1019500022952F700226269532272327220F220F49
:10196000220F202580852827022E2295207F2025E2
:10197000032E322F22952F700226269532272327F9
:10198000220F220F220F202581852827022E229543
:10199000207F2025032E322F22952F700226269598
:1019A00032272327220F220F220F2025C901089555
:1019B0000FB6F894A4B1209147022A2B24B921E054
:1019C00030914702203029F0000025B1232B25B9A2
:1019D00004C000000000000000C000000000000083
:1019E000309525B1232325B92EEA2A95F1F72BEE60
:1019F00030B735FF0AC0A4B930914702309525B100
:101A0000232325B90FBE80E0089500002A9581F7B1
:101A100021E030914702203029F0000025B1232B2E
:101A200025B904C000000000000000C00000000054
:101A30000000309525B1232325B9000024E52A951F
:101A4000F1F7FC018CE0619170E0660F771F616037
:101A500072609AE041E050E09A0126233723232B5D
:101A600030914702203029F0000025B1232B25B901
:101A700004C000000000000000C0000000000000E2
:101A8000309525B1232325B9000021E52A95F1F7EA
:101A9000440F551F9A9501F78A95A9F620B7206142
:101AA00020BFA4B930914702309525B1232325B931
:101AB0000FBE81E00895EF92FF920F931F937B0179
:101AC0008C0120E030E040E05FE40E94D7108823E2
:101AD0008CF0C801B70120E030E040E05FE40E94F4
:101AE000D30E0E9465119B01AC0120503040404054
:101AF000504806C0C801B7010E9465119B01AC01A6
:101B0000B901CA011F910F91FF90EF900895A0E0D5
:101B1000B0E0EDE8FDE00C946D14DC012B01FA015E
:101B20009C91923008F439C1EB018881823008F42D
:101B300033C1943069F4843009F02FC111969C911F
:101B400011978981981709F428C1A9E0B1E025C14E
:101B5000843009F421C18230A9F4923009F01DC10A
:101B60009A01AD0188E0EA010990AE01E90109920C
:101B70009E018150C1F7E201898111969C918923D0
:101B8000818308C1923009F407C112962D903C90D0
:101B90001397EB018A819B811496AD90BD90CD90F7
:101BA000DC901797EC80FD800E811F819101281B2E
:101BB000390BB90137FF04C066277727621B730B07
:101BC000603271050CF061C0121613066CF5370116
:101BD0004801062E04C096948794779467940A94DB
:101BE000D2F721E030E040E050E004C0220F331F84
:101BF000441F551F6A95D2F7215030404040504055
:101C00002E213F2140235123211531054105510546
:101C100021F021E030E040E050E079018A01E6283F
:101C2000F728082919293CC0232BD1F1260E371E8D
:101C300035014601062E04C09694879477946794E4
:101C40000A94D2F721E030E040E050E004C0220FD7
:101C5000331F441F551F6A95D2F721503040404032
:101C600050402A213B214C215D21211531054105A0
:101C7000510521F021E030E040E050E059016A01D7
:101C8000A628B728C828D9280BC0821593052CF0A0
:101C90001C01AA24BB24650103C0EE24FF24870194
:101CA00011969C91D20111968C91981709F445C018
:101CB000992339F0A80197012A193B094C095D09BC
:101CC00006C0A60195012E193F09400B510B57FD87
:101CD00008C011823382228224833583468357834E
:101CE0001DC081E081833382228288279927DC010D
:101CF000821B930BA40BB50B84839583A683B783B8
:101D00000DC0220F331F441F551F24833583468384
:101D100057838281938101979383828324813581C4
:101D200046815781DA01C9010197A109B1098F5F85
:101D30009F4FAF4FBF4328F30BC091833382228262
:101D4000EA0CFB1C0C1D1D1DE482F5820683178323
:101D500083E08083248135814681578157FF1AC0F3
:101D6000C901AA2797FDA095BA2F81709070A07025
:101D7000B0705695479537952795822B932BA42BBA
:101D8000B52B84839583A683B78382819381019643
:101D900093838283DF0101C0D201CD01CDB7DEB7CD
:101DA000E2E10C948914A0E2B0E0E9EDFEE00C94CD
:101DB000791469837A838B839C832D833E834F833D
:101DC0005887E9E0EE2EF12CEC0EFD1ECE010196B7
:101DD000B7010E9456138E010F5E1F4FCE0105966C
:101DE000B8010E9456138A8991E089278A8BC7011E
:101DF000B801AE01475E5F4F0E94870D0E948112BD
:101E0000A096E6E00C949514A0E2B0E0EAE0FFE0D2
:101E10000C94791469837A838B839C832D833E830E
:101E20004F835887F9E0EF2EF12CEC0EFD1ECE010A
:101E30000196B7010E9456138E010F5E1F4FCE010F
:101E40000596B8010E945613C701B801AE01475E5E
:101E50005F4F0E94870D0E948112A096E6E00C94CD
:101E60009514A0E2B0E0E7E3FFE00C946D14698301
:101E70007A838B839C832D833E834F835887CE0147
:101E80000196BE01675F7F4F0E945613CE010596F3
:101E9000BE016F5E7F4F0E9456139985923088F085
:101EA00089898230C8F0943019F4823051F404C02A
:101EB000843029F4923081F489E091E0C6C09230F8
:101EC00049F420E09A858A89981321E02A87CE0177
:101ED0000996BBC0823049F420E09A858A8998131C
:101EE00021E02A8BCE014196B0C02D843E844F84E0
:101EF00058886D887E888F88988CEE24FF2487010F
:101F0000AA24BB24650140E050E060E070E0E0E01E
:101F1000F0E0C10181709070892BE9F0E60CF71CAC
:101F2000081D191D9A01AB012A0D3B1D4C1D5D1D9D
:101F300080E090E0A0E0B0E0E614F70408051905A1
:101F400020F481E090E0A0E0B0E0BA01A901480FE0
:101F5000591F6A1F7B1FAA0CBB1CCC1CDD1C97FEE3
:101F600008C081E090E0A0E0B0E0A82AB92ACA2A1F
:101F7000DB2A3196E032F10549F0660C771C881CAB
:101F8000991C5694479437942794C3CFFA85EA89CD
:101F90002B893C898B859C85280F391F2E5F3F4FED
:101FA00017C0CA0181709070892B61F01695079552
:101FB000F794E79480E090E0A0E0B0E8E82AF92AFE
:101FC0000A2B1B2B76956795579547952F5F3F4FAB
:101FD00077FDE7CF0CC0440F551F661F771F17FD15
:101FE0004160EE0CFF1C001F111F2150304040309B
:101FF00090E0590790E0690790E4790760F32B8F30
:102000003C8FDB01CA018F779070A070B070803474
:102010009105A105B10561F447FD0AC0E114F10481
:102020000105110529F0405C5F4F6F4F7F4F4078ED
:102030001A8EFE1711F081E08A8F4D8F5E8F6F8FA1
:1020400078A383E0898FCE0149960E948112A096E1
:10205000E2E10C948914A8E1B0E0E1E3F0E10C9432
:10206000751469837A838B839C832D833E834F838E
:102070005887B9E0EB2EF12CEC0EFD1ECE01019637
:10208000B7010E9456138E010F5E1F4FCE010596B9
:10209000B8010E9456132985223008F47EC0398980
:1020A000323010F4B8017CC08A859A8989278A87E2
:1020B000243011F0223031F4231709F06EC069E0AA
:1020C00071E06EC0343039F41D861E861F86188A72
:1020D0001C861B8604C0323021F484E08987B70156
:1020E0005FC02B853C858B899C89281B390B3C87DD
:1020F0002B87ED84FE840F851889AD88BE88CF8834
:10210000D88CEA14FB040C051D0540F4EE0CFF1CF2
:10211000001F111F215030403C872B8720E030E00A
:1021200040E050E080E090E0A0E0B0E460E070E0EB
:10213000EA14FB040C051D0540F0282B392B4A2B13
:102140005B2BEA18FB080C091D09B695A795979516
:102150008795EE0CFF1C001F111F6F5F7F4F6F31C3
:10216000710531F7DA01C9018F779070A070B070F6
:1021700080349105A105B10561F427FD0AC0E11481
:10218000F1040105110529F0205C3F4F4F4F5F4FCF
:1021900020782D873E874F87588BBE01675F7F4F22
:1021A000CB010E9481126896EAE00C949114A8E198
:1021B000B0E0EDEDF0E10C94791469837A838B83C0
:1021C0009C832D833E834F83588789E0E82EF12C32
:1021D000EC0EFD1ECE010196B7010E9456138E0132
:1021E0000F5E1F4FCE010596B8010E9456138985D8
:1021F000823040F08989823028F0C701B8010E94FE
:10220000CE1301C08FEF6896E6E00C949514A8E019
:10221000B0E0EDE0F1E10C9476149B01AC0183E0B9
:102220008983DA01C9018827B7FD83959927AA27F1
:10223000BB27B82E211531054105510519F482E05F
:1022400089833AC08823A9F0203080E0380780E0F5
:10225000480780E8580729F460E070E080E09FECD0
:1022600030C0EE24FF248701E21AF30A040B150B99
:1022700002C079018A018EE1C82ED12CDC82CB828A
:10228000ED82FE820F831887C801B7010E943212C7
:1022900001971816190684F4082E04C0EE0CFF1CD2
:1022A000001F111F0A94D2F7ED82FE820F83188758
:1022B000C81AD90ADC82CB82BA82CE0101960E946A
:1022C00081122896E9E00C949214ACE0B0E0EBE6C1
:1022D000F1E10C947D1469837A838B839C83CE0116
:1022E0000196BE016B5F7F4F0E9456138D81823035
:1022F00061F1823050F1843021F48E81882351F1D4
:102300002EC02F81388537FD20C06E812F313105D9
:102310001CF06623F9F023C08EE190E0821B930B42
:1023200029853A854B855C8504C056954795379538
:1023300027958A95D2F76623B1F050954095309550
:1023400021953F4F4F4F5F4F0EC020E030E040E0FF
:1023500050E009C02FEF3FEF4FEF5FE704C020E0F0
:1023600030E040E050E8B901CA012C96E2E00C945C
:102370009914A8E0B0E0EFEBF1E10C9475147B0147
:102380008C01611571058105910519F482E089833D
:1023900060C083E089838EE1C82ED12CDC82CB82A1
:1023A000ED82FE820F831887C801B7010E943212A6
:1023B000FC013197F7FF3BC0222733272E1B3F0B31
:1023C00057016801022E04C0D694C794B794A7940D
:1023D0000A94D2F740E050E060E070E081E090E0E5
:1023E000A0E0B0E004C0880F991FAA1FBB1F2A9568
:1023F000D2F70197A109B1098E219F21A023B12312
:102400000097A105B10521F041E050E060E070E0E7
:102410004A295B296C297D294D835E836F837887E8
:102420008EE190E08E1B9F0B9C838B8312C03097B4
:1024300081F00E2E04C0EE0CFF1C001F111F0A9429
:10244000D2F7ED82FE820F831887CE1ADF0ADC8274
:10245000CB821A82CE0101960E9481122896EAE070
:102460000C949114EF92FF920F931F937B018C01B8
:1024700080E0E81680E0F80681E0080780E01807B1
:1024800088F48FEFE816F1040105110531F028F00A
:1024900088E090E0A0E0B0E017C080E090E0A0E02D
:1024A000B0E012C080E0E81680E0F80680E008079F
:1024B00081E0180728F088E190E0A0E0B0E004C0D7
:1024C00080E190E0A0E0B0E020E230E040E050E0C9
:1024D000281B390B4A0B5B0B04C016950795F79424
:1024E000E7948A95D2F7F701EF5EFE4F8081281BB3
:1024F000310941095109C9011F910F91FF90EF90D6
:102500000895DF92EF92FF920F931F93FC01E480F6
:10251000F58006811781D1808081823048F480E087
:1025200090E0A0E1B0E0E82AF92A0A2B1B2BA5C015
:10253000843009F49FC0823021F4EE24FF24870107
:1025400005C0E114F1040105110519F4E0E0F0E023
:1025500096C0628173819FEF623879070CF05BC08F
:1025600022E83FEF261B370B2A3131052CF020E003
:1025700030E040E050E02AC0B801A701022E04C0BC
:1025800076956795579547950A94D2F781E090E044
:10259000A0E0B0E004C0880F991FAA1FBB1F2A95B6
:1025A000D2F70197A109B1098E219F21A023B12360
:1025B0000097A105B10521F081E090E0A0E0B0E036
:1025C0009A01AB01282B392B4A2B5B2BDA01C9016D
:1025D0008F779070A070B07080349105A105B1051F
:1025E00039F427FF09C0205C3F4F4F4F5F4F04C0B5
:1025F000215C3F4F4F4F5F4FE0E0F0E02030A0E024
:102600003A07A0E04A07A0E45A0710F0E1E0F0E042
:1026100079018A0127C06038710564F5FB01E15832
:10262000FF4FD801C7018F779070A070B0708034D1
:102630009105A105B10539F4E7FE0DC080E490E0F5
:10264000A0E0B0E004C08FE390E0A0E0B0E0E80ECE
:10265000F91E0A1F1B1F17FF05C016950795F79453
:10266000E794319687E016950795F794E7948A9555
:10267000D1F705C0EE24FF248701EFEFF0E06E2FC5
:10268000679566276795902F9F77D794DD24D79419
:102690008E2F8695492F462B582F5D29B701CA01E9
:1026A0001F910F91FF90EF90DF900895FC01DB01E7
:1026B000408151812281622F6F7770E0221F222793
:1026C000221F9381892F880F822B282F30E0991F9A
:1026D0009927991F11969C93119721153105A9F5FA
:1026E000411551056105710511F482E037C082E89A
:1026F0009FEF13969C938E9312979A01AB0167E01C
:10270000220F331F441F551F6A95D1F783E08C9326
:102710000DC0220F331F441F551F12968D919C919F
:102720001397019713969C938E931297203080E015
:10273000380780E0480780E4580758F314962D9333
:102740003D934D935C93179708952F3F310579F48E
:10275000411551056105710519F484E08C930895C4
:1027600064FF03C081E08C9312C01C9210C02F57ED
:10277000304013963C932E93129783E08C9387E01E
:10278000440F551F661F771F8A95D1F77064149602
:102790004D935D936D937C93179708951F93DC0180
:1027A000FB019C91923008F447C08081823008F48C
:1027B00043C0943051F411961C91843099F5818175
:1027C000682F70E0611B71093FC0843021F09230A6
:1027D00031F48230B9F18181882389F12DC01196BD
:1027E0001C9111978230F1F081811817D9F412965B
:1027F0002D913C911397828193818217930794F0D6
:1028000028173907BCF014968D919D910D90BC91BD
:10281000A02D2481358146815781281739074A0721
:102820005B0718F4112341F00AC082179307A4072D
:10283000B50740F4112319F061E070E005C06FEFB7
:102840007FEF02C060E070E0CB011F910895629FAE
:10285000D001739FF001829FE00DF11D649FE00D98
:10286000F11D929FF00D839FF00D749FF00D659FF9
:10287000F00D9927729FB00DE11DF91F639FB00DF8
:10288000E11DF91FBD01CF011124089597FB092E09
:1028900007260AD077FD04D00CD006D000201AF409
:1028A000709561957F4F0895F6F7909581959F4FAC
:1028B0000895AA1BBB1B51E107C0AA1FBB1FA61787
:1028C000B70710F0A61BB70B881F991F5A95A9F7D9
:1028D00080959095BC01CD0108952F923F924F9223
:1028E0005F926F927F928F929F92AF92BF92CF92A0
:1028F000DF92EF92FF920F931F93CF93DF93CDB7A9
:10290000DEB7CA1BDB0B0FB6F894DEBF0FBECDBF20
:1029100009942A88398848885F846E847D848C84F1
:102920009B84AA84B984C884DF80EE80FD800C81FA
:102930001B81AA81B981CE0FD11D0FB6F894DEBFDD
:102940000FBECDBFED010895A0E0B0E0EAEAF4E1EA
:102950000C947514EC01A880B980CA80DB80A114A6
:10296000B104C104D10441F484E2A82E89EDB82E4B
:102970008BE5C82E87E0D82EC601B5012DE133EFD7
:1029800041E050E00E941B1527EA31E440E050E0AE
:102990000E9427147B018C01C601B5012DE133EFA4
:1029A00041E050E00E941B15CA01B9012CEE34EF42
:1029B0004FEF5FEF0E9427146E0D7F1D801F911F48
:1029C00097FF04C0615070408040904868837983CD
:1029D0008A839B839B013F77C901CDB7DEB7EAE0CD
:1029E0000C9491140E94A414089581E192E00E9435
:1029F000A4140895A0E0B0E0809311029093120215
:102A0000A0931302B09314020895F999FECF92BDDA
:102A100081BDF89A992780B50895262FF999FECFA0
:102A20001FBA92BD81BD20BD0FB6F894FA9AF99AEB
:102A30000FBE0196089597FB092E05260ED057FD6F
:102A400004D014D00AD0001C38F45095409530952D
:102A500021953F4F4F4F5F4F0895F6F79095809522
:102A6000709561957F4F8F4F9F4F0895A1E21A2E69
:102A7000AA1BBB1BFD010DC0AA1FBB1FEE1FFF1F22
:102A8000A217B307E407F50720F0A21BB30BE40B72
:102A9000F50B661F771F881F991F1A9469F76095B9
:102AA0007095809590959B01AC01BD01CF01089573
:042AB000F894FFCFC8
:102AB400080109010C017402AA00000000000000D2
:102AC40000000102020303030304040404040404D5
:102AD40004050505050505050505050505050505A3
:102AE4000506060606060606060606060606060683
:102AF4000606060606060606060606060606060672
:102B04000607070707070707070707070707070752
:102B14000707070707070707070707070707070741
:102B24000707070707070707070707070707070731
:102B34000707070707070707070707070707070721
:102B44000708080808080808080808080808080802
:102B540008080808080808080808080808080808F1
:102B640008080808080808080808080808080808E1
:102B740008080808080808080808080808080808D1
:102B840008080808080808080808080808080808C1
:102B940008080808080808080808080808080808B1
:102BA40008080808080808080808080808080808A1
:102BB4000808080808080808080808080808080891
:062BC40008010000000002
:00000001FF
