:100000000C9434000C945A000C945A000C945A002E
:100010000C945A000C945A000C94A6000C945A00AC
:100020000C945A000C945A000C945A000C94D1046D
:100030000C945A000C945A000C941D070C945A000E
:100040000C945A000C945A000C945A000C945A00C8
:100050000C945A000C945A000C945A000C94F3041B
:100060000C945A000C945A0011241FBECFEFD8E014
:10007000DEBFCDBF14BE88E10FB6F8948093600058
:10008000109260000FBE12E0A0E0B1E0E6EEF9E2EF
:1000900002C005900D92A631B107D9F712E0A6E192
:1000A000B2E001C01D92A638B107E1F70E946600D8
:1000B0000C94F1140C9400008CE192E0089581E01E
:1000C00090E0909317028093160208950E9495077E
:1000D0008CE590E090930301809302018FE590E01E
:1000E000909305018093040183E990E06DE770E04F
:1000F0000E943B0A80E090E0089580911602909162
:100100001702019709F00895109217021092160233
:1001100081E10E94AD0484E690E00E94BA0080E094
:100120000E94AD04089510922502ECE1F2E083E014
:100130008083CF010E94B80B909327028093260200
:100140000895089580E090E0089508951F920F9219
:100150000FB60F9211248F9388E10FB6F894809315
:100160006000109260000FBE8F910F900FBE0F9035
:100170001F901895009739F020ED37E0F90131977D
:10018000F1F70197D9F708958093B3006093B40015
:1001900008958FEF8093B3008093B40080ED97E0D3
:1001A000FC013197F1F7FC013197F1F7FC01319730
:1001B000F1F7FC013197F1F7FC013197F1F7FC0100
:1001C0003197F1F7FC013197F1F7FC013197F1F725
:1001D000FC013197F1F7FC013197F1F7FC01319700
:1001E000F1F7FC013197F1F7FC013197F1F7FC01D0
:1001F0003197F1F70197F1F7089580914F02882325
:10020000F9F4F89487E080937C0083E880937A0087
:1002100080917A00806480937A0080917A0086FDD4
:10022000FCCF209178003091790010927C0083EA15
:1002300080937A0081E080937B007894C9010895CF
:100240002FEF3FEFC901089580914F028823F9F401
:10025000F89488EC80937C0087E880937A00809102
:100260007A00806480937A0080917A0086FDFCCFCA
:10027000209178003091790010927C0083EA80937D
:100280007A0081E080937B007894C90108952FEF74
:100290003FEFC9010895CF93DF93B0E060E070E0D5
:1002A000F3EAA1E056E0E3E8C1E0D0E020E030E08E
:1002B000F89450937C00E0937A0080917A008064F7
:1002C00080937A0080917A0086FDFCCF809178003F
:1002D00090917900482F417080917A0080648093DA
:1002E0007A0080917A0086FDFCCF80917800909111
:1002F000790010927C00F0937A00A0937B007894B0
:100300008170481729F42F5F3F4F2038310581F65F
:10031000442341F0CE01062E02C0880F991F0A9493
:10032000E2F7B82B6F5F7F4F6830710509F0BECFE1
:100330008B2FDF91CF91089580910801982F990F0D
:10034000990F990F982720911A02822F86958695EA
:1003500089279295969597708927809308012F5F3A
:1003600020931A02089580930801089580914F0206
:100370008823B9F4F89486E080937C0083E8809326
:100380007A0080917A00806480937A0080917A006C
:1003900086FDFCCF20917800309179007894C901D6
:1003A00008952FEF3FEFC90108952F923F924F928A
:1003B0005F926F927F928F929F92AF92BF92CF92F5
:1003C000DF92EF92FF920F931F93DF93CF9300D0B2
:1003D00000D00F92CDB7DEB71C01DC0112964D9014
:1003E0005C901397B4E84B16B3E05B060CF49DC029
:1003F000EFEFED83BDEB4B16B2E05B06D4F48D81DD
:100400008F5D0F900F900F900F900F90CF91DF9115
:100410001F910F91FF90EF90DF90CF90BF90AF9022
:100420009F908F907F906F905F904F903F902F9014
:100430000895F10100811181809150029091510243
:100440008017910708F443C1E0905202F0905302E4
:10045000E016F10608F415C2E0905402F09055023F
:10046000E016F10608F416C2E0905602F09057022A
:10047000E016F10608F417C2E0905802F090590215
:10048000E016F10608F418C2E0905A02F0905B0200
:10049000E016F10608F46EC1E0905C02F0905D0297
:1004A000E016F10608F411C2E0905E02F0905F02DF
:1004B000E016F10608F412C2E0906002F0906102CA
:1004C000E016F10608F413C2E0906202F0906302B5
:1004D000E016F10608F414C2E0906402F0906502A0
:1004E000E016F10608F415C2E0906602F09067028B
:1004F000E016F10608F41AC2E0906802F090690272
:10050000E016F10608F41BC2E0906A02F0906B025C
:10051000E016F10608F41CC28AE5382E2D812F3F23
:1005200009F0DAC0832D8F5D6CCF80912902909104
:100530002A028415950508F4C8C0E0902B02F090BB
:100540002C02E414F50408F4A1C1E0902D02F0900F
:100550002E02E414F50408F4A2C1E0902F02F090FA
:100560003002E414F50408F4A3C1E0903102F090E5
:100570003202E414F50408F4A4C1E0903302F090D0
:100580003402E414F50408F460C1E0903502F09000
:100590003602E414F50408F49DC1E0903702F090AF
:1005A0003802E414F50408F49EC1E0903902F0909A
:1005B0003A02E414F50408F49FC1E0903B02F09085
:1005C0003C02E414F50408F4A0C1E0903D02F09070
:1005D0003E02E414F50408F4A1C1E0903F02F0905B
:1005E0004002E414F50408F49DC1E0904102F0904B
:1005F0004202E414F50408F49EC1E0904302F09036
:100600004402E414F50408F49FC10CE010E080E01B
:1006100090E0A0EDB0E489839A83AB83BC83000FA4
:10062000111F075D1D4FD8018D919C91B701681B6B
:10063000790B80E090E00E9452119B01AC010E9476
:100640009D0E3B014C01B201882777FD8095982FC4
:100650000E94A0105B016C01B70180E090E00E9455
:1006600052117B018C01C401B30129813A814B8174
:100670005C810E94CA0E9B01AC01C801B7010E94B7
:100680006C0E9B01AC01C601B5010E946C0E20E00E
:1006900030E040E251E40E94CA0E0E94FE107B014D
:1006A0008C01C401B3010E94FE109B01AC01C70183
:1006B000B9010E94DF13882777FD8095982F0E944B
:1006C000A0100E94F40C6D8395CE1D8293CE33242E
:1006D0002D812F3F09F426CFB201882777FD809521
:1006E000982F0E94A0105B016C01AD816A2F70E011
:1006F00080E090E00E9452117B018C0160E070E08C
:1007000081E694E4A60195010E946C0E9B01AC0168
:10071000C801B7010E94CA0E3B014C01632D70E075
:1007200080E090E00E9452117B018C01C601B5016E
:1007300020E030E04FE254E40E946C0E9B01AC01DB
:10074000C801B7010E94CA0E9B01AC01C401B301EC
:100750000E949D0E20E030E048E453E40E94C40F64
:1007600020E030E044E052E40E949D0E0E94F40C30
:10077000862F47CEA5E03A2EE5E0F0E0EE0FFF1F12
:10078000E25BFD4F80819181B701681B790B80E0AE
:1007900090E00E9452119B01AC010E949D0E3B0112
:1007A0004C01B801882777FD8095982F0E94A010F2
:1007B0005B016C01B70180E090E00E9452117B0167
:1007C0008C01632D70E080E090E00E94521120E0E7
:1007D00030E040E05FE30E94CA0E20E030E040E0FD
:1007E00050E00E949D0EA40193010E94CA0E9B013D
:1007F000AC01C801B7010E946C0E9B01AC01C6019F
:10080000B5010E946C0E20E030E040E251E40E940D
:10081000CA0E0E94FE107B018C01C401B3010E942C
:10082000FE109B01AC01C701B9010E94DF138827AC
:1008300077FD8095982F0E94A0100E94F40C362E10
:10084000FFEF6F1709F044CFDACD85E090E065E067
:100850008C010150104070E080E090E00E94521145
:1008600020E030E040E05FE30E94CA0E20E030E08C
:1008700040E050E00E949D0E69837A838B839C83C5
:10088000CECE33243394E1E0F0E078CF81E090E005
:1008900061E0DECF92E0392EE2E0F0E06FCF82E05F
:1008A00090E062E0D5CF83E0382EE3E0F0E066CF61
:1008B00083E090E063E0CCCFB4E03B2EE4E0F0E0F6
:1008C0005DCF84E090E064E0C3CFF6E03F2EE6E049
:1008D000F0E054CF86E090E066E0BACFE7E03E2E4D
:1008E000E7E0F0E04BCF87E090E067E0B1CF78E061
:1008F000372EE8E0F0E042CF88E090E068E0A8CF53
:1009000069E0362EE9E0F0E039CF89E090E069E077
:100910009FCF5AE0352EEAE0F0E030CF8AE090E059
:100920006AE096CF8BE090E06BE092CF4BE0342E04
:10093000EBE0F0E023CF8CE090E06CE089CF3CE08E
:10094000332EECE0F0E01ACF8DE090E06DE080CF48
:100950002DE0322EEDE0F0E011CF80FF11C0559A6E
:1009600081FF11C0549A82FF11C03B9A83FF11C0CE
:100970003A9A84FF11C03D9A85FD11C03C980895B4
:10098000559881FDEFCF549882FDEFCF3B9883FDC2
:10099000EFCF3A9884FDEFCF3D9885FFEFCF3C9A9B
:1009A00008951F920F920FB60F9211248F939F9369
:1009B00010928100109285001092840091E0909333
:1009C000280290936C0210924F0210927C0083EAEE
:1009D00080937A0090937B009F918F910F900FBE30
:1009E0000F901F9018951F920F920FB60F9211241F
:1009F0000F931F932F933F934F935F936F937F9327
:100A00008F939F93AF93BF93EF93FF936091840075
:100A10007091850001E000934F02809128028823A5
:100A2000A9F1109285001092840000938100109229
:100A300080021092280280916C028823A1F080919C
:100A40007A0086FDFCCF8091780090917900909398
:100A50004A028093490291E090937C0083EA80935C
:100A60007A0090937B00FF91EF91BF91AF919F919E
:100A70008F917F916F915F914F913F912F911F9136
:100A80000F910F900FBE0F901F901895CB018758B4
:100A900090408457994008F066C06658704080E0E6
:100AA00090E024EF30E040E050E00E94C013BC0131
:100AB00088279927683008F48DC000932802809118
:100AC0006C02882309F063C080914602E091060120
:100AD000F0910701E80FF11D8091800280838091E1
:100AE00046028F5F809346028C3009F0BCCF109293
:100AF0008100109285001092840000936C02109285
:100B00004F0200917C0210917D0282E792E00E94E8
:100B1000B80B0817190709F0A6CF90917B0297FF31
:100B20006BC0892F8858833030F0539823981092E7
:100B3000B4001092B300963809F4D2C0973808F088
:100B400065C0933809F4D0C0943808F068C0903874
:100B500009F089CF80916E008D7F80936E0016BC66
:100B6000E0E0F0E709951092810010928500109264
:100B700084000093280200936C0210924F0210929E
:100B80007C0083EA80937A0000937B006CCF809195
:100B90007A0086FDFCCF8091780090917900909347
:100BA00048028093470210927C0083EA80937A0087
:100BB00091E090937B00809180028823C1F0109295
:100BC0008100109285001092840090936C02109224
:100BD0004F0249CF81E090E002C0880F991F6A95CB
:100BE000E2F720918002282B209380023CCF1092C4
:100BF0006C021092460237CFE0910001F0910101A2
:100C000082E792E067E472E009952DCF983809F405
:100C10006EC0983870F482E080931B0224CF943821
:100C200009F479C0953809F01ECF81E080931B024A
:100C30001ACF993809F498C09A3809F014CF8091E6
:100C40007202823009F4BEC0833008F074C0882379
:100C500009F064C080911B02863009F004CF80EB5C
:100C600090E0609181020E94A6146091820281EB63
:100C700090E00E94A61485E090E0609185020E94B9
:100C8000A61489E090E0609171020E94A6148CE0A5
:100C900090E0609183020E94A61484E190E060914C
:100CA00084020E94A614539823981092B4001092C4
:100CB000B30081E080931B0280917202882309F4C3
:100CC000D2CE80911B02863009F4CDCE539A239A5E
:100CD0001092B4001092B30086E080931B02C3CE42
:100CE00085E080931B02BFCEE0E0F0E009958091A3
:100CF0001B02833009F4B7CE80911B02843009F4C3
:100D0000B2CE539A239A1092B4001092B30083E0AB
:100D100080931B02A8CE10921B02A5CE813071F6E3
:100D20008091730290917402909382028093810269
:100D300010921802C6CF833009F45BC0843009F0EA
:100D4000BDCF80911802833009F44AC02091780207
:100D5000909177021092190283E080931802909389
:100D6000830220938402ADCF80911B02863091F0E4
:100D7000539A239A1092B4001092B30080E00E941C
:100D8000AD0410921802809118028093190286E037
:100D900080931B0281E090E00090720202C0880FF5
:100DA000991F0A94E2F720918102309182028223F6
:100DB0009323892B19F41092180255CE81E0809369
:100DC000180251CE80911802813009F1909175027C
:100DD0001092190281E0809318029093850271CFDE
:100DE00020917802809184022817C1F090917702B7
:100DF000B1CF809118028230C9F0909176021092A2
:100E0000190282E080931802909371025ACF909158
:100E10007502809185029817D9F653CF9091770289
:100E200080918302981709F095CF4BCF909176026D
:100E300080917102981719F744CF1F920F920FB645
:100E40000F9211242F933F934F935F936F937F9350
:100E50008F939F93AF93BF93EF93FF9320916D0276
:100E600030916E0280916F0290917002280F391FAD
:100E70003093700220936F028FEF90E090936E0298
:100E800080936D028FEF87BD80914B0290914C0251
:100E9000A0914D02B0914E020196A11DB11D80930B
:100EA0004B0290934C02A0934D02B0934E0280915E
:100EB0004F02882359F480917E0290917F0282171D
:100EC000930720F480911B02843089F0FF91EF9109
:100ED000BF91AF919F918F917F916F915F914F9152
:100EE0003F912F910F900FBE0F901F901895E0919A
:100EF0000201F09103010995009741F30E94710CE2
:100F0000882349F40E948E1490E090936E0280939F
:100F10006D0287BDDBCFE0910401F09105010995D9
:100F20001092700210926F02D1CF0F931F93F8941A
:100F300014B817B81AB815B818B81BB8529A5A9AF4
:100F400014BC85E085BD8FEF87BD22E020936E0045
:100F500010928000109281008FE89BE090938900AE
:100F60008093880020936F005398239881EA8093A0
:100F7000B0002093B1001092B4001092B3008BE047
:100F800080BF83E080937F0086E080937C0083E8CD
:100F900080937A0080917A00806480937A008091B7
:100FA0007A0086FDFCCF10927C0083EA80937A0061
:100FB00081E080937B0081E090E00E949E148F3F4F
:100FC00011F08093660010924F0211E010932802F6
:100FD00010936C02109246021092800280E990E019
:100FE0000E949E148093450280914502887311F0FF
:100FF000109345021092700210926F028FEF90E0F2
:1010000090936E0280936D0210924B0210924C02EC
:1010100010924D0210924E0281E080931B0282E4F6
:101020009FE090937F0280937E0280EB90E00E948D
:101030009E14082F81EB90E00E949E14382F20E030
:1010400010E0202B312B309382022093810285E027
:1010500090E00E949E148093850289E090E00E94B7
:101060009E14809371028CE090E00E949E14809305
:10107000830284E190E00E949E148093840280E2C7
:1010800090E00E949E14182F81E290E00E949E142E
:10109000312F20E090E0282B392B30935102209300
:1010A000500280E590E00E949E14182F81E590E0A8
:1010B0000E949E14312F20E090E0282B392B309392
:1010C0002A022093290282E290E00E949E14182FA7
:1010D00083E290E00E949E14312F20E090E0282BC4
:1010E000392B309353022093520282E590E00E9404
:1010F0009E14182F83E590E00E949E14312F20E06B
:1011000090E0282B392B30932C0220932B0284E281
:1011100090E00E949E14182F85E290E00E949E1499
:10112000312F20E090E0282B392B3093550220936B
:10113000540284E590E00E949E14182F85E590E00B
:101140000E949E14312F20E090E0282B392B309301
:101150002E0220932D0286E290E00E949E14182F0A
:1011600087E290E00E949E14312F20E090E0282B2F
:10117000392B309357022093560286E590E00E9467
:101180009E14182F87E590E00E949E14312F20E0D6
:1011900090E0282B392B3093300220932F0288E2E5
:1011A00090E00E949E14182F89E290E00E949E1405
:1011B000312F20E090E0282B392B309359022093D7
:1011C000580288E590E00E949E14182F89E590E06F
:1011D0000E949E14312F20E090E0282B392B309371
:1011E0003202209331028AE290E00E949E14182F6E
:1011F0008BE290E00E949E14312F20E090E0282B9B
:10120000392B30935B0220935A028AE590E00E94CA
:101210009E14182F8BE590E00E949E14312F20E041
:1012200090E0282B392B30933402209333028CE248
:1012300090E00E949E14182F8DE290E00E949E1470
:10124000312F20E090E0282B392B30935D02209342
:101250005C028CE590E00E949E14182F8DE590E0D2
:101260000E949E14312F20E090E0282B392B3093E0
:101270003602209335028EE290E00E949E14182FD1
:101280008FE290E00E949E14312F20E090E0282B06
:10129000392B30935F0220935E028EE590E00E942E
:1012A0009E14182F8FE590E00E949E14312F20E0AD
:1012B00090E0282B392B309338022093370280E3BB
:1012C00090E00E949E14182F81E390E00E949E14EB
:1012D000312F20E090E0282B392B309361022093AE
:1012E000600280E690E00E949E14182F81E690E054
:1012F0000E949E14312F20E090E0282B392B309350
:101300003A022093390282E390E00E949E14182F43
:1013100083E390E00E949E14312F20E090E0282B80
:10132000392B309363022093620282E690E00E94A0
:101330009E14182F83E690E00E949E14312F20E027
:1013400090E0282B392B30933C0220933B0284E31E
:1013500090E00E949E14182F85E390E00E949E1456
:10136000312F20E090E0282B392B30936502209319
:10137000640284E690E00E949E14182F85E690E0B7
:101380000E949E14312F20E090E0282B392B3093BF
:101390003E0220933D0286E390E00E949E14182FA7
:1013A00087E390E00E949E14312F20E090E0282BEC
:1013B000392B309367022093660286E690E00E9404
:1013C0009E14182F87E690E00E949E14312F20E093
:1013D00090E0282B392B3093400220933F0288E382
:1013E00090E00E949E14182F89E390E00E949E14C2
:1013F000312F20E090E0282B392B30936902209385
:10140000680288E690E00E949E14182F89E690E01A
:101410000E949E14312F20E090E0282B392B30932E
:101420004202209341028AE390E00E949E14182F0A
:101430008BE390E00E949E14312F20E090E0282B57
:10144000392B30936B0220936A028AE690E00E9467
:101450009E14182F8BE690E00E949E14312F20E0FE
:1014600090E0282B392B3093440220934302789448
:101470001F910F9108952F923F924F925F926F921A
:101480007F928F929F92AF92BF92CF92DF92EF9214
:10149000FF920F931F93CF93DF936C018B01FF2477
:1014A000A0EDAA2EA7E0BA2EC8ECD0E0EE24EA9474
:1014B000F0E38F2EF5E79F2EE6E07E2E73E8672E91
:1014C00068E1462E512C59E2352E44E0242E8091BD
:1014D0001B02833079F18430B8F5813009F4CBC038
:1014E000823008F461C080914F02882309F008C15E
:1014F000F89470927C0060927A0080917A00806407
:1015000080937A0080917A0086FDFCCF209178004C
:1015100030917900789442E02B3A34070CF4F7C00C
:10152000559854983B9A3A9A3D983C9880911B0262
:10153000833089F6FF2009F4E0C020921B02FF24CB
:10154000F394F8010995C3CF853089F08530C8F34D
:10155000863009F0BCCF80911802882309F0A6C01C
:101560001092B3001092B40010921902B0CF4899B3
:1015700063C0559A54983B983A983D983C98C50159
:101580000197F1F7559854983B983A983D983C98B4
:1015900020E030E0CE010197F1F72F5F3F4F87E069
:1015A000203D3807B9F793CFF89480B7877F80BF85
:1015B00080917A008F7780937A0014B817B81AB8A0
:1015C00015B818B81BB80FB6F894A89540926000EB
:1015D0000FBE309260008091600080648093600054
:1015E00083B7817F846083BFF89483B7816083BFB2
:1015F0007894889583B78E7F83BF789410924F023A
:10160000529A5A9A80917A00806880937A0088E58D
:1016100092E00197F1F780B7886180BF559A549A9C
:101620003B9A3A9A3D9A3C9A80E29EE40197F1F700
:1016300080914F02882339F4559854983B983A98F2
:101640003D983C9844CF559A549A3B983A983D9887
:101650003C9820E030E0CE010197F1F72F5F3F4F3B
:1016600043E0283E3407B9F7559854983B983A9888
:101670003D983C982CCF559854983B9A3A9A3D986F
:101680003C98C5010197F1F7559854983B983A98C2
:101690003D983C9820E030E0CE010197F1F72F5FB4
:1016A0003F4F87E0203D3807B9F711CF90911802DE
:1016B00080911902981709F40ACF8091180280933B
:1016C000190280911802813069F1809118028230EC
:1016D000B9F11092B300E092B400E092B300E0924E
:1016E000B400C4010197F1F78091830290918402C4
:1016F0008093B3009093B400EACEF60109951DCF14
:10170000559A549A3B983A983D983C98E0CE82E09E
:10171000293838071CF1559854983B983A983D9AC7
:101720003C9AD5CEE092B3001092B400C401019768
:10173000F1F7809185028093B3001092B400C7CE78
:101740001092B300E092B400C4010197F1F78091C8
:1017500071021092B3008093B400B9CE2756324084
:101760007CF2559A549A3B9A3A9A3D983C98AFCE5F
:10177000FC0180812FEF3FEF2827022E2295207F4A
:101780002025032E322F22952F70022626953227F0
:101790002327220F220F220F202581812827022EA6
:1017A0002295207F2025032E322F22952F7002268E
:1017B000269532272327220F220F220F20258281F0
:1017C0002827022E2295207F2025032E322F2295B6
:1017D0002F700226269532272327220F220F220F51
:1017E000202583812827022E2295207F2025032E65
:1017F000322F22952F700226269532272327220F7B
:10180000220F220F202584812827022E2295207F57
:101810002025032E322F22952F700226269532275F
:101820002327220F220F220F202585812827022E11
:101830002295207F2025032E322F22952F700226FD
:10184000269532272327220F220F220F202586815B
:101850002827022E2295207F2025032E322F229525
:101860002F700226269532272327220F220F220FC0
:10187000202587812827022E2295207F2025032ED0
:10188000322F22952F700226269532272327220FEA
:10189000220F220F202580852827022E2295207FC7
:1018A0002025032E322F22952F70022626953227CF
:1018B0002327220F220F220F202581852827022E81
:1018C0002295207F2025032E322F22952F7002266D
:1018D000269532272327220F220F220F2025C90108
:1018E00008950FB6F894A4B1209145022A2B24B98B
:1018F00021E030914502203029F0000025B1232B52
:1019000025B904C000000000000000C00000000075
:101910000000309525B1232325B92EEA2A95F1F749
:101920002BEE30B735FF0AC0A4B93091450230958F
:1019300025B1232325B90FBE80E0089500002A9524
:1019400081F721E030914502203029F0000025B1D7
:10195000232B25B904C000000000000000C00000D7
:1019600000000000309525B1232325B9000024E5AF
:101970002A95F1F7FC018CE0619170E0660F771F0A
:10198000616072609AE041E050E09A0126233723BB
:10199000232B30914502203029F0000025B1232B64
:1019A00025B904C000000000000000C000000000D5
:1019B0000000309525B1232325B9000021E52A95A3
:1019C000F1F7440F551F9A9501F78A95A9F620B7AC
:1019D000206120BFA4B930914502309525B1232361
:1019E00025B90FBE81E00895EF92FF920F931F93E8
:1019F0007B018C0120E030E040E05FE40E94701049
:101A000088238CF0C801B70120E030E040E05FE4BB
:101A10000E946C0E0E94FE109B01AC0120503040D1
:101A20004040504806C0C801B7010E94FE109B010B
:101A3000AC01B901CA011F910F91FF90EF90089579
:101A4000A0E0B0E0E6E2FDE00C940614DC012B011E
:101A5000FA019C91923008F439C1EB0188818230FF
:101A600008F433C1943069F4843009F02FC1119621
:101A70009C9111978981981709F428C1A9E0B1E0D8
:101A800025C1843009F421C18230A9F4923009F0D3
:101A90001DC19A01AD0188E0EA010990AE01E9019A
:101AA00009929E018150C1F7E201898111969C91B2
:101AB0008923818308C1923009F407C112962D90C1
:101AC0003C901397EB018A819B811496AD90BD9059
:101AD000CD90DC901797EC80FD800E811F819101E5
:101AE000281B390BB90137FF04C066277727621B13
:101AF000730B603271050CF061C0121613066CF5A1
:101B000037014801062E04C0969487947794679411
:101B10000A94D2F721E030E040E050E004C0220F08
:101B2000331F441F551F6A95D2F721503040404063
:101B300050402E213F2140235123211531054105DD
:101B4000510521F021E030E040E050E079018A01C8
:101B5000E628F728082919293CC0232BD1F1260EA5
:101B6000371E35014601062E04C09694879477945B
:101B700067940A94D2F721E030E040E050E004C0DE
:101B8000220F331F441F551F6A95D2F72150304052
:101B9000404050402A213B214C215D212115310537
:101BA0004105510521F021E030E040E050E05901CD
:101BB0006A01A628B728C828D9280BC08215930522
:101BC0002CF01C01AA24BB24650103C0EE24FF24D1
:101BD000870111969C91D20111968C91981709F466
:101BE00045C0992339F0A80197012A193B094C09EE
:101BF0005D0906C0A60195012E193F09400B510B46
:101C000057FD08C0118233822282248335834683A4
:101C100057831DC081E081833382228288279927E0
:101C2000DC01821B930BA40BB50B84839583A683E5
:101C3000B7830DC0220F331F441F551F24833583E4
:101C40004683578382819381019793838283248182
:101C5000358146815781DA01C9010197A109B1098E
:101C60008F5F9F4FAF4FBF4328F30BC091833382E9
:101C70002282EA0CFB1C0C1D1D1DE482F5820683EA
:101C8000178383E08083248135814681578157FF04
:101C90001AC0C901AA2797FDA095BA2F817090702C
:101CA000A070B0705695479537952795822B932B4A
:101CB000A42BB52B84839583A683B78382819381DC
:101CC000019693838283DF0101C0D201CD01CDB79C
:101CD000DEB7E2E10C942214A0E2B0E0E2E7FEE01D
:101CE0000C94121469837A838B839C832D833E83A7
:101CF0004F835887E9E0EE2EF12CEC0EFD1ECE014D
:101D00000196B7010E94EF128E010F5E1F4FCE01A8
:101D10000596B8010E94EF128A8991E089278A8B83
:101D2000C701B801AE01475E5F4F0E94200D0E94BF
:101D30001A12A096E6E00C942E14A0E2B0E0E3EABA
:101D4000FEE00C94121469837A838B839C832D8329
:101D50003E834F835887F9E0EF2EF12CEC0EFD1EE9
:101D6000CE010196B7010E94EF128E010F5E1F4F48
:101D7000CE010596B8010E94EF12C701B801AE016D
:101D8000475E5F4F0E94200D0E941A12A096E6E067
:101D90000C942E14A0E2B0E0E0EDFEE00C940614EA
:101DA00069837A838B839C832D833E834F835887FB
:101DB000CE010196BE01675F7F4F0E94EF12CE01F8
:101DC0000596BE016F5E7F4F0E94EF12998592309B
:101DD00088F089898230C8F0943019F4823051F447
:101DE00004C0843029F4923081F489E091E0C6C0C7
:101DF000923049F420E09A858A89981321E02A8755
:101E0000CE010996BBC0823049F420E09A858A89C8
:101E1000981321E02A8BCE014196B0C02D843E84D8
:101E20004F8458886D887E888F88988CEE24FF2494
:101E30008701AA24BB24650140E050E060E070E027
:101E4000E0E0F0E0C10181709070892BE9F0E60CD0
:101E5000F71C081D191D9A01AB012A0D3B1D4C1DD5
:101E60005D1D80E090E0A0E0B0E0E614F704080516
:101E7000190520F481E090E0A0E0B0E0BA01A901EA
:101E8000480F591F6A1F7B1FAA0CBB1CCC1CDD1CF2
:101E900097FE08C081E090E0A0E0B0E0A82AB92A4F
:101EA000CA2ADB2A3196E032F10549F0660C771C2C
:101EB000881C991C5694479437942794C3CFFA856D
:101EC000EA892B893C898B859C85280F391F2E5FD9
:101ED0003F4F17C0CA0181709070892B61F0169531
:101EE0000795F794E79480E090E0A0E0B0E8E82A56
:101EF000F92A0A2B1B2B76956795579547952F5FE7
:101F00003F4F77FDE7CF0CC0440F551F661F771F6B
:101F100017FD4160EE0CFF1C001F111F21503040C7
:101F2000403090E0590790E0690790E4790760F34A
:101F30002B8F3C8FDB01CA018F779070A070B0703F
:101F400080349105A105B10561F447FD0AC0E11493
:101F5000F1040105110529F0405C5F4F6F4F7F4F81
:101F600040781A8EFE1711F081E08A8F4D8F5E8FB8
:101F70006F8F78A383E0898FCE0149960E941A1251
:101F8000A096E2E10C942214A8E1B0E0EAECFFE0B4
:101F90000C940E1469837A838B839C832D833E83F8
:101FA0004F835887B9E0EB2EF12CEC0EFD1ECE01CD
:101FB0000196B7010E94EF128E010F5E1F4FCE01F6
:101FC0000596B8010E94EF122985223008F47EC0E0
:101FD0003989323010F4B8017CC08A859A89892702
:101FE0008A87243011F0223031F4231709F06EC0B3
:101FF00069E071E06EC0343039F41D861E861F869C
:10200000188A1C861B8604C0323021F484E089873C
:10201000B7015FC02B853C858B899C89281B390BB8
:102020003C872B87ED84FE840F851889AD88BE8898
:10203000CF88D88CEA14FB040C051D0540F4EE0C87
:10204000FF1C001F111F215030403C872B8720E0D0
:1020500030E040E050E080E090E0A0E0B0E460E0FC
:1020600070E0EA14FB040C051D0540F0282B392B09
:102070004A2B5B2BEA18FB080C091D09B695A7959E
:1020800097958795EE0CFF1C001F111F6F5F7F4F08
:102090006F31710531F7DA01C9018F779070A07047
:1020A000B07080349105A105B10561F427FD0AC027
:1020B000E114F1040105110529F0205C3F4F4F4F59
:1020C0005F4F20782D873E874F87588BBE01675F13
:1020D0007F4FCB010E941A126896EAE00C942A14F2
:1020E000A8E1B0E0E6E7F0E10C94121469837A838A
:1020F0008B839C832D833E834F83588789E0E82E12
:10210000F12CEC0EFD1ECE010196B7010E94EF12DC
:102110008E010F5E1F4FCE010596B8010E94EF128F
:102120008985823040F08989823028F0C701B80162
:102130000E94671301C08FEF6896E6E00C942E149E
:10214000A8E0B0E0E6EAF0E10C940F149B01AC01CA
:1021500083E08983DA01C9018827B7FD8395992730
:10216000AA27BB27B82E211531054105510519F4C1
:1021700082E089833AC08823A9F0203080E03807C4
:1021800080E0480780E8580729F460E070E080E0CC
:102190009FEC30C0EE24FF248701E21AF30A040BFF
:1021A000150B02C079018A018EE1C82ED12CDC8288
:1021B000CB82ED82FE820F831887C801B7010E948F
:1021C000CB1101971816190684F4082E04C0EE0CE2
:1021D000FF1C001F111F0A94D2F7ED82FE820F83AD
:1021E0001887C81AD90ADC82CB82BA82CE0101963E
:1021F0000E941A122896E9E00C942B14ACE0B0E08F
:10220000E4E0F1E10C94161469837A838B839C8358
:10221000CE010196BE016B5F7F4F0E94EF128D8150
:10222000823061F1823050F1843021F48E81882334
:1022300051F12EC02F81388537FD20C06E812F319E
:1022400031051CF06623F9F023C08EE190E0821B7B
:10225000930B29853A854B855C8504C05695479537
:10226000379527958A95D2F76623B1F0509540951A
:10227000309521953F4F4F4F5F4F0EC020E030E02B
:1022800040E050E009C02FEF3FEF4FEF5FE704C0A1
:1022900020E030E040E050E8B901CA012C96E2E0CD
:1022A0000C943214A8E0B0E0E8E5F1E10C940E14CF
:1022B0007B018C01611571058105910519F482E09E
:1022C000898360C083E089838EE1C82ED12CDC82B3
:1022D000CB82ED82FE820F831887C801B7010E946E
:1022E000CB11FC013197F7FF3BC0222733272E1B70
:1022F0003F0B57016801022E04C0D694C794B794CF
:10230000A7940A94D2F740E050E060E070E081E0EA
:1023100090E0A0E0B0E004C0880F991FAA1FBB1F87
:102320002A95D2F70197A109B1098E219F21A023F7
:10233000B1230097A105B10521F041E050E060E034
:1023400070E04A295B296C297D294D835E836F8368
:1023500078878EE190E08E1B9F0B9C838B8312C04D
:10236000309781F00E2E04C0EE0CFF1C001F111FD1
:102370000A94D2F7ED82FE820F831887CE1ADF0A05
:10238000DC82CB821A82CE0101960E941A12289614
:10239000EAE00C942A14EF92FF920F931F937B01B3
:1023A0008C0180E0E81680E0F80681E0080780E014
:1023B000180788F48FEFE816F1040105110531F0D4
:1023C00028F088E090E0A0E0B0E017C080E090E066
:1023D000A0E0B0E012C080E0E81680E0F80680E0FF
:1023E000080781E0180728F088E190E0A0E0B0E05D
:1023F00004C080E190E0A0E0B0E020E230E040E006
:1024000050E0281B390B4A0B5B0B04C0169507954F
:10241000F794E7948A95D2F7F701EF5EFE4F80813B
:10242000281B310941095109C9011F910F91FF90E2
:10243000EF900895DF92EF92FF920F931F93FC01AC
:10244000E480F58006811781D1808081823048F454
:1024500080E090E0A0E1B0E0E82AF92A0A2B1B2BEB
:10246000A5C0843009F49FC0823021F4EE24FF24FB
:10247000870105C0E114F1040105110519F4E0E03C
:10248000F0E096C0628173819FEF623879070CF0AB
:102490005BC022E83FEF261B370B2A3131052CF0B9
:1024A00020E030E040E050E02AC0B801A701022E51
:1024B00004C076956795579547950A94D2F781E0C1
:1024C00090E0A0E0B0E004C0880F991FAA1FBB1FD6
:1024D0002A95D2F70197A109B1098E219F21A02346
:1024E000B1230097A105B10521F081E090E0A0E0C3
:1024F000B0E09A01AB01282B392B4A2B5B2BDA0178
:10250000C9018F779070A070B07080349105A105DB
:10251000B10539F427FF09C0205C3F4F4F4F5F4F93
:1025200004C0215C3F4F4F4F5F4FE0E0F0E02030B0
:10253000A0E03A07A0E04A07A0E45A0710F0E1E063
:10254000F0E079018A0127C06038710564F5FB016C
:10255000E158FF4FD801C7018F779070A070B0701D
:1025600080349105A105B10539F4E7FE0DC080E482
:1025700090E0A0E0B0E004C08FE390E0A0E0B0E025
:10258000E80EF91E0A1F1B1F17FF05C016950795B9
:10259000F794E794319687E016950795F794E794BA
:1025A0008A95D1F705C0EE24FF248701EFEFF0E014
:1025B0006E2F679566276795902F9F77D794DD24B8
:1025C000D7948E2F8695492F462B582F5D29B7011A
:1025D000CA011F910F91FF90EF90DF900895FC01C9
:1025E000DB01408151812281622F6F7770E0221FD1
:1025F0002227221F9381892F880F822B282F30E0DA
:10260000991F9927991F11969C93119721153105B0
:10261000A9F5411551056105710511F482E037C036
:1026200082E89FEF13969C938E9312979A01AB01C9
:1026300067E0220F331F441F551F6A95D1F783E0CF
:102640008C930DC0220F331F441F551F12968D917E
:102650009C911397019713969C938E931297203019
:1026600080E0380780E0480780E4580758F3149664
:102670002D933D934D935C93179708952F3F31050C
:1026800079F4411551056105710519F484E08C93C5
:10269000089564FF03C081E08C9312C01C9210C0A7
:1026A0002F57304013963C932E93129783E08C93D0
:1026B00087E0440F551F661F771F8A95D1F7706416
:1026C00014964D935D936D937C93179708951F9384
:1026D000DC01FB019C91923008F447C0808182307C
:1026E00008F443C0943051F411961C91843099F54C
:1026F0008181682F70E0611B71093FC0843021F037
:10270000923031F48230B9F18181882389F12DC072
:1027100011961C9111978230F1F081811817D9F42C
:1027200012962D913C911397828193818217930782
:1027300094F028173907BCF014968D919D910D9057
:10274000BC91A02D248135814681578128173907F6
:102750004A075B0718F4112341F00AC08217930758
:10276000A407B50740F4112319F061E070E005C03B
:102770006FEF7FEF02C060E070E0CB011F91089522
:10278000629FD001739FF001829FE00DF11D649F55
:10279000E00DF11D929FF00D839FF00D749FF00DE1
:1027A000659FF00D9927729FB00DE11DF91F639F82
:1027B000B00DE11DF91FBD01CF011124089597FB54
:1027C000092E07260AD077FD04D00CD006D00020B1
:1027D0001AF4709561957F4F0895F6F7909581955D
:1027E0009F4F0895AA1BBB1B51E107C0AA1FBB1F27
:1027F000A617B70710F0A61BB70B881F991F5A958D
:10280000A9F780959095BC01CD0108952F923F9234
:102810004F925F926F927F928F929F92AF92BF92F0
:10282000CF92DF92EF92FF920F931F93CF93DF939C
:10283000CDB7DEB7CA1BDB0B0FB6F894DEBF0FBEF9
:10284000CDBF09942A88398848885F846E847D8446
:102850008C849B84AA84B984C884DF80EE80FD8048
:102860000C811B81AA81B981CE0FD11D0FB6F894BE
:10287000DEBF0FBECDBFED010895A0E0B0E0E3E400
:10288000F4E10C940E14EC01A880B980CA80DB80BE
:10289000A114B104C104D10441F484E2A82E89ED4D
:1028A000B82E8BE5C82E87E0D82EC601B5012DE1E4
:1028B00033EF41E050E00E94B41427EA31E440E0F5
:1028C00050E00E94C0137B018C01C601B5012DE1CF
:1028D00033EF41E050E00E94B414CA01B9012CEE7C
:1028E00034EF4FEF5FEF0E94C0136E0D7F1D801F0E
:1028F000911F97FF04C061507040804090486883EA
:1029000079838A839B839B013F77C901CDB7DEB76B
:10291000EAE00C942A140E943D14089581E192E0AB
:102920000E943D140895A0E0B0E0809311029093BE
:102930001202A0931302B09314020895F999FECFE6
:1029400092BD81BDF89A992780B50895262FF999EF
:10295000FECF1FBA92BD81BD20BD0FB6F894FA9A82
:10296000F99A0FBE0196089597FB092E05260ED001
:1029700057FD04D014D00AD0001C38F4509540956F
:10298000309521953F4F4F4F5F4F0895F6F7909543
:102990008095709561957F4F8F4F9F4F0895A1E26D
:1029A0001A2EAA1BBB1BFD010DC0AA1FBB1FEE1FC9
:1029B000FF1FA217B307E407F50720F0A21BB30B14
:1029C000E40BF50B661F771F881F991F1A9469F790
:1029D00060957095809590959B01AC01BD01CF01EC
:0629E0000895F894FFCFFA
:1029E600A100A200A5007202AA00000000000000DB
:1029F60000000102020303030304040404040404A4
:102A06000405050505050505050505050505050571
:102A16000506060606060606060606060606060651
:102A26000606060606060606060606060606060640
:102A36000607070707070707070707070707070721
:102A46000707070707070707070707070707070710
:102A56000707070707070707070707070707070700
:102A660007070707070707070707070707070707F0
:102A760007080808080808080808080808080808D1
:102A860008080808080808080808080808080808C0
:102A960008080808080808080808080808080808B0
:102AA60008080808080808080808080808080808A0
:102AB6000808080808080808080808080808080890
:102AC6000808080808080808080808080808080880
:102AD6000808080808080808080808080808080870
:102AE6000808080808080808080808080808080860
:062AF600080100000000D1
:00000001FF
